{"abi":[{"type":"constructor","inputs":[{"name":"initialOwner","type":"address","internalType":"address"},{"name":"feeRecipient_","type":"address","internalType":"address"},{"name":"platformFeeBps_","type":"uint256","internalType":"uint256"}],"stateMutability":"nonpayable"},{"type":"function","name":"agents","inputs":[{"name":"agentId","type":"uint256","internalType":"uint256"}],"outputs":[{"name":"owner","type":"address","internalType":"address"},{"name":"payout","type":"address","internalType":"address"},{"name":"active","type":"bool","internalType":"bool"}],"stateMutability":"view"},{"type":"function","name":"buySkill","inputs":[{"name":"agentId","type":"uint256","internalType":"uint256"},{"name":"skillId","type":"uint256","internalType":"uint256"}],"outputs":[],"stateMutability":"payable"},{"type":"function","name":"feeRecipient","inputs":[],"outputs":[{"name":"","type":"address","internalType":"address"}],"stateMutability":"view"},{"type":"function","name":"owner","inputs":[],"outputs":[{"name":"","type":"address","internalType":"address"}],"stateMutability":"view"},{"type":"function","name":"platformFeeBps","inputs":[],"outputs":[{"name":"","type":"uint256","internalType":"uint256"}],"stateMutability":"view"},{"type":"function","name":"purchases","inputs":[{"name":"buyer","type":"address","internalType":"address"},{"name":"agentId","type":"uint256","internalType":"uint256"},{"name":"skillId","type":"uint256","internalType":"uint256"}],"outputs":[{"name":"","type":"uint256","internalType":"uint256"}],"stateMutability":"view"},{"type":"function","name":"registerAgent","inputs":[{"name":"agentId","type":"uint256","internalType":"uint256"},{"name":"agentOwner","type":"address","internalType":"address"},{"name":"payout","type":"address","internalType":"address"}],"outputs":[],"stateMutability":"nonpayable"},{"type":"function","name":"renounceOwnership","inputs":[],"outputs":[],"stateMutability":"nonpayable"},{"type":"function","name":"setAgentPayout","inputs":[{"name":"agentId","type":"uint256","internalType":"uint256"},{"name":"payout","type":"address","internalType":"address"}],"outputs":[],"stateMutability":"nonpayable"},{"type":"function","name":"setFeeRecipient","inputs":[{"name":"r","type":"address","internalType":"address"}],"outputs":[],"stateMutability":"nonpayable"},{"type":"function","name":"setPlatformFeeBps","inputs":[{"name":"bps","type":"uint256","internalType":"uint256"}],"outputs":[],"stateMutability":"nonpayable"},{"type":"function","name":"setSkill","inputs":[{"name":"agentId","type":"uint256","internalType":"uint256"},{"name":"skillId","type":"uint256","internalType":"uint256"},{"name":"priceWei","type":"uint256","internalType":"uint256"},{"name":"active_","type":"bool","internalType":"bool"}],"outputs":[],"stateMutability":"nonpayable"},{"type":"function","name":"skills","inputs":[{"name":"agentId","type":"uint256","internalType":"uint256"},{"name":"skillId","type":"uint256","internalType":"uint256"}],"outputs":[{"name":"priceWei","type":"uint256","internalType":"uint256"},{"name":"active","type":"bool","internalType":"bool"}],"stateMutability":"view"},{"type":"function","name":"transferOwnership","inputs":[{"name":"newOwner","type":"address","internalType":"address"}],"outputs":[],"stateMutability":"nonpayable"},{"type":"event","name":"AgentPayoutUpdated","inputs":[{"name":"agentId","type":"uint256","indexed":true,"internalType":"uint256"},{"name":"payout","type":"address","indexed":false,"internalType":"address"}],"anonymous":false},{"type":"event","name":"AgentRegistered","inputs":[{"name":"agentId","type":"uint256","indexed":true,"internalType":"uint256"},{"name":"owner","type":"address","indexed":true,"internalType":"address"},{"name":"payout","type":"address","indexed":false,"internalType":"address"}],"anonymous":false},{"type":"event","name":"OwnershipTransferred","inputs":[{"name":"previousOwner","type":"address","indexed":true,"internalType":"address"},{"name":"newOwner","type":"address","indexed":true,"internalType":"address"}],"anonymous":false},{"type":"event","name":"SkillPurchased","inputs":[{"name":"buyer","type":"address","indexed":true,"internalType":"address"},{"name":"agentId","type":"uint256","indexed":true,"internalType":"uint256"},{"name":"skillId","type":"uint256","indexed":true,"internalType":"uint256"},{"name":"grossWei","type":"uint256","indexed":false,"internalType":"uint256"},{"name":"platformWei","type":"uint256","indexed":false,"internalType":"uint256"},{"name":"agentWei","type":"uint256","indexed":false,"internalType":"uint256"}],"anonymous":false},{"type":"event","name":"SkillUpdated","inputs":[{"name":"agentId","type":"uint256","indexed":true,"internalType":"uint256"},{"name":"skillId","type":"uint256","indexed":true,"internalType":"uint256"},{"name":"priceWei","type":"uint256","indexed":false,"internalType":"uint256"},{"name":"active","type":"bool","indexed":false,"internalType":"bool"}],"anonymous":false},{"type":"error","name":"OwnableInvalidOwner","inputs":[{"name":"owner","type":"address","internalType":"address"}]},{"type":"error","name":"OwnableUnauthorizedAccount","inputs":[{"name":"account","type":"address","internalType":"address"}]},{"type":"error","name":"ReentrancyGuardReentrantCall","inputs":[]}],"bytecode":{"object":"0x608060405234801561000f575f80fd5b50604051610f57380380610f5783398101604081905261002e9161015c565b826001600160a01b03811661005d57604051631e4fbdf760e01b81525f60048201526024015b60405180910390fd5b610066816100f2565b5060017f9b779b17422d0df92223018b32b4d1fa46e071723d6817e2486d003becc55f00556107d08111156100c85760405162461bcd60e51b815260206004820152600860248201526741534d3a2066656560c01b6044820152606401610054565b600180546001600160a01b0319166001600160a01b03939093169290921790915560025550610195565b5f80546001600160a01b038381166001600160a01b0319831681178455604051919092169283917f8be0079c531659141344cd1fd0a4f28419497f9722a3daafe3b4186f6b6457e09190a35050565b80516001600160a01b0381168114610157575f80fd5b919050565b5f805f6060848603121561016e575f80fd5b61017784610141565b925061018560208501610141565b9150604084015190509250925092565b610db5806101a25f395ff3fe6080604052600436106100d9575f3560e01c8063cb9a99f61161007c578063d8b70ace11610057578063d8b70ace146102cf578063e59e6f19146102e2578063e74b981b14610301578063f2fde38b14610320575f80fd5b8063cb9a99f61461023c578063cc66cbce1461025b578063d48464c41461027a575f80fd5b8063513856c8116100b7578063513856c814610178578063715018a6146101eb5780638da5cb5b14610201578063c580c9421461021d575f80fd5b806303d3981e146100dd57806322dcd13e1461012c5780634690484014610141575b5f80fd5b3480156100e8575f80fd5b506101196100f7366004610bdd565b600560209081525f938452604080852082529284528284209052825290205481565b6040519081526020015b60405180910390f35b348015610137575f80fd5b5061011960025481565b34801561014c575f80fd5b50600154610160906001600160a01b031681565b6040516001600160a01b039091168152602001610123565b348015610183575f80fd5b506101c3610192366004610c0d565b60036020525f9081526040902080546001909101546001600160a01b0391821691811690600160a01b900460ff1683565b604080516001600160a01b039485168152939092166020840152151590820152606001610123565b3480156101f6575f80fd5b506101ff61033f565b005b34801561020c575f80fd5b505f546001600160a01b0316610160565b348015610228575f80fd5b506101ff610237366004610c0d565b610352565b348015610247575f80fd5b506101ff610256366004610c24565b6103a1565b348015610266575f80fd5b506101ff610275366004610c66565b610492565b348015610285575f80fd5b506102ba610294366004610c90565b600460209081525f92835260408084209091529082529020805460019091015460ff1682565b60408051928352901515602083015201610123565b6101ff6102dd366004610c90565b61059c565b3480156102ed575f80fd5b506101ff6102fc366004610cb0565b61090d565b34801561030c575f80fd5b506101ff61031b366004610ce9565b610a70565b34801561032b575f80fd5b506101ff61033a366004610ce9565b610a9a565b610347610ad7565b6103505f610b03565b565b61035a610ad7565b6107d081111561039c5760405162461bcd60e51b815260206004820152600860248201526741534d3a2066656560c01b60448201526064015b60405180910390fd5b600255565b5f8481526003602052604090206001810154600160a01b900460ff1680156103d2575080546001600160a01b031633145b61040f5760405162461bcd60e51b815260206004820152600e60248201526d20a9a69d103737ba1037bbb732b960911b6044820152606401610393565b60408051808201825284815283151560208083018281525f8a8152600483528581208a8252835285902093518455516001909301805460ff191693151593909317909255825186815291820152859187917f037eb2df902b125d2f2eddbb271f5ed8ffe83add8c7975d1867bd5e6e3af6cc4910160405180910390a35050505050565b5f8281526003602052604090206001810154600160a01b900460ff1680156104c3575080546001600160a01b031633145b6105005760405162461bcd60e51b815260206004820152600e60248201526d20a9a69d103737ba1037bbb732b960911b6044820152606401610393565b6001600160a01b0382166105425760405162461bcd60e51b815260206004820152600960248201526841534d3a207a65726f60b81b6044820152606401610393565b6001810180546001600160a01b0319166001600160a01b03841690811790915560405190815283907fa6176e1500e7f466dd737b5e2ca868281ff1c2151f8680414909e72f8275b67d9060200160405180910390a2505050565b6105a4610b52565b5f82815260036020908152604091829020825160608101845281546001600160a01b03908116825260019092015491821692810192909252600160a01b900460ff1615159181018290529061062b5760405162461bcd60e51b815260206004820152600d60248201526c1054d34e881b9bc81859d95b9d609a1b6044820152606401610393565b5f8381526004602090815260408083208584528252918290208251808401909352805483526001015460ff1615801591830182905261066a5750805115155b6106a65760405162461bcd60e51b815260206004820152600d60248201526c1054d34e881b9bc81cdada5b1b609a1b6044820152606401610393565b805134146106e35760405162461bcd60e51b815260206004820152600a60248201526941534d3a2076616c756560b01b6044820152606401610393565b5f612710600254346106f59190610d1d565b6106ff9190610d3a565b90505f61070c8234610d59565b90505f8211801561072757506001546001600160a01b031615155b156107c2576001546040515f916001600160a01b03169084908381818185875af1925050503d805f8114610776576040519150601f19603f3d011682016040523d82523d5f602084013e61077b565b606091505b50509050806107c05760405162461bcd60e51b815260206004820152601160248201527041534d3a20706c6174666f726d2070617960781b6044820152606401610393565b505b801561085e575f84602001516001600160a01b0316826040515f6040518083038185875af1925050503d805f8114610815576040519150601f19603f3d011682016040523d82523d5f602084013e61081a565b606091505b505090508061085c5760405162461bcd60e51b815260206004820152600e60248201526d41534d3a206167656e742070617960901b6044820152606401610393565b505b335f90815260056020908152604080832089845282528083208884529091528120805460019290610890908490610d6c565b909155505060408051348152602081018490529081018290528590879033907ffa97b3f9e0e6f3949745e4e857f1bcfa5eea37ab9f8fd4ec794fb1d23cce62489060600160405180910390a45050505061090960017f9b779b17422d0df92223018b32b4d1fa46e071723d6817e2486d003becc55f0055565b5050565b610915610ad7565b6001600160a01b0382161580159061093557506001600160a01b03811615155b61096d5760405162461bcd60e51b815260206004820152600960248201526841534d3a207a65726f60b81b6044820152606401610393565b5f83815260036020526040902060010154600160a01b900460ff16156109c35760405162461bcd60e51b815260206004820152600b60248201526a41534d3a2065786973747360a81b6044820152606401610393565b604080516060810182526001600160a01b03848116808352848216602080850182815260018688018181525f8c815260038552899020975188546001600160a01b0319169088161788559151960180549151969095166001600160a81b031990911617600160a01b9515159590950294909417909255925190815285917f8f041a5898b573cd1b50f3153fa5378e55053d1c42f4082ef64e0a97a7892cd6910160405180910390a3505050565b610a78610ad7565b600180546001600160a01b0319166001600160a01b0392909216919091179055565b610aa2610ad7565b6001600160a01b038116610acb57604051631e4fbdf760e01b81525f6004820152602401610393565b610ad481610b03565b50565b5f546001600160a01b031633146103505760405163118cdaa760e01b8152336004820152602401610393565b5f80546001600160a01b038381166001600160a01b0319831681178455604051919092169283917f8be0079c531659141344cd1fd0a4f28419497f9722a3daafe3b4186f6b6457e09190a35050565b610b5a610b80565b60027f9b779b17422d0df92223018b32b4d1fa46e071723d6817e2486d003becc55f0055565b7f9b779b17422d0df92223018b32b4d1fa46e071723d6817e2486d003becc55f005460020361035057604051633ee5aeb560e01b815260040160405180910390fd5b80356001600160a01b0381168114610bd8575f80fd5b919050565b5f805f60608486031215610bef575f80fd5b610bf884610bc2565b95602085013595506040909401359392505050565b5f60208284031215610c1d575f80fd5b5035919050565b5f805f8060808587031215610c37575f80fd5b84359350602085013592506040850135915060608501358015158114610c5b575f80fd5b939692955090935050565b5f8060408385031215610c77575f80fd5b82359150610c8760208401610bc2565b90509250929050565b5f8060408385031215610ca1575f80fd5b50508035926020909101359150565b5f805f60608486031215610cc2575f80fd5b83359250610cd260208501610bc2565b9150610ce060408501610bc2565b90509250925092565b5f60208284031215610cf9575f80fd5b610d0282610bc2565b9392505050565b634e487b7160e01b5f52601160045260245ffd5b8082028115828204841417610d3457610d34610d09565b92915050565b5f82610d5457634e487b7160e01b5f52601260045260245ffd5b500490565b81810381811115610d3457610d34610d09565b80820180821115610d3457610d34610d0956fea2646970667358221220ac820ac607547d0e0420bfd831345f08488a6b11e98e106c94b2c56b975c2a4564736f6c63430008180033","linkReferences":{}},"methodIdentifiers":{"agents(uint256)":"513856c8","buySkill(uint256,uint256)":"d8b70ace","feeRecipient()":"46904840","owner()":"8da5cb5b","platformFeeBps()":"22dcd13e","purchases(address,uint256,uint256)":"03d3981e","registerAgent(uint256,address,address)":"e59e6f19","renounceOwnership()":"715018a6","setAgentPayout(uint256,address)":"cc66cbce","setFeeRecipient(address)":"e74b981b","setPlatformFeeBps(uint256)":"c580c942","setSkill(uint256,uint256,uint256,bool)":"cb9a99f6","skills(uint256,uint256)":"d48464c4","transferOwnership(address)":"f2fde38b"},"id":92}