{"abi":[{"type":"function","name":"creatorBtcLiquidityPool","inputs":[{"name":"creator","type":"address","internalType":"address"}],"outputs":[{"name":"lpPool","type":"address","internalType":"address"}],"stateMutability":"view"},{"type":"function","name":"creatorToken","inputs":[{"name":"creator","type":"address","internalType":"address"}],"outputs":[{"name":"token","type":"address","internalType":"address"}],"stateMutability":"view"},{"type":"function","name":"nftCollections","inputs":[{"name":"creator","type":"address","internalType":"address"},{"name":"","type":"uint256","internalType":"uint256"}],"outputs":[{"name":"collections","type":"address","internalType":"address"}],"stateMutability":"view"},{"type":"function","name":"setCreatorToken","inputs":[{"name":"token","type":"address","internalType":"address"}],"outputs":[],"stateMutability":"nonpayable"},{"type":"function","name":"setLiquidityPool","inputs":[{"name":"pool","type":"address","internalType":"address"}],"outputs":[],"stateMutability":"nonpayable"},{"type":"function","name":"setNFTCollection","inputs":[{"name":"slot","type":"uint8","internalType":"uint8"},{"name":"collection","type":"address","internalType":"address"}],"outputs":[],"stateMutability":"nonpayable"},{"type":"event","name":"CreatorTokenSet","inputs":[{"name":"creator","type":"address","indexed":true,"internalType":"address"},{"name":"token","type":"address","indexed":true,"internalType":"address"}],"anonymous":false},{"type":"event","name":"LiquidityPoolSet","inputs":[{"name":"creator","type":"address","indexed":true,"internalType":"address"},{"name":"pool","type":"address","indexed":true,"internalType":"address"}],"anonymous":false},{"type":"event","name":"NFTCollectionSet","inputs":[{"name":"creator","type":"address","indexed":true,"internalType":"address"},{"name":"slot","type":"uint8","indexed":true,"internalType":"uint8"},{"name":"collection","type":"address","indexed":false,"internalType":"address"}],"anonymous":false}],"bytecode":{"object":"0x608060405234801561000f575f80fd5b506103a18061001d5f395ff3fe608060405234801561000f575f80fd5b5060043610610060575f3560e01c80630187702014610064578063062e29e114610079578063467517771461008c57806385ba629b146100bb578063aa85d946146100ce578063e1ad6457146100f6575b5f80fd5b6100776100723660046102d7565b61011e565b005b6100776100873660046102f7565b610174565b61009f61009a36600461032f565b61023b565b6040516001600160a01b03909116815260200160405180910390f35b6100776100c93660046102d7565b610266565b61009f6100dc3660046102d7565b5f602081905290815260409020546001600160a01b031681565b61009f6101043660046102d7565b60026020525f90815260409020546001600160a01b031681565b335f8181526002602052604080822080546001600160a01b0319166001600160a01b03861690811790915590519092917f228055d64ffd3d47643903f213052e296dbd01cbf9650eb469b7ee211327b1bc91a350565b60038260ff16106101bc5760405162461bcd60e51b815260206004820152600e60248201526d149959da5cdd1c9e4e881cdb1bdd60921b604482015260640160405180910390fd5b335f908152600160205260409020819060ff8416600381106101e0576101e0610357565b0180546001600160a01b0319166001600160a01b03928316179055604051908216815260ff83169033907f07ec047af87d1bc738b962647b286ee08a788fb6d81289d603ecdd272842c7679060200160405180910390a35050565b6001602052815f5260405f208160038110610254575f80fd5b01546001600160a01b03169150829050565b335f8181526020819052604080822080546001600160a01b0319166001600160a01b03861690811790915590519092917fb574bfd118a69d32e1b9e7d71998a54501854573bad65f54d6c695d8c71f683291a350565b80356001600160a01b03811681146102d2575f80fd5b919050565b5f602082840312156102e7575f80fd5b6102f0826102bc565b9392505050565b5f8060408385031215610308575f80fd5b823560ff81168114610318575f80fd5b9150610326602084016102bc565b90509250929050565b5f8060408385031215610340575f80fd5b610349836102bc565b946020939093013593505050565b634e487b7160e01b5f52603260045260245ffdfea264697066735822122098d851606a4635b89872d3ccc229a309fc261ec7732e762325cb291bd32f55a964736f6c63430008180033","linkReferences":{}},"methodIdentifiers":{"creatorBtcLiquidityPool(address)":"e1ad6457","creatorToken(address)":"aa85d946","nftCollections(address,uint256)":"46751777","setCreatorToken(address)":"85ba629b","setLiquidityPool(address)":"01877020","setNFTCollection(uint8,address)":"062e29e1"},"id":89}