{"abi":[{"type":"constructor","inputs":[{"name":"name_","type":"string","internalType":"string"},{"name":"symbol_","type":"string","internalType":"string"},{"name":"owner_","type":"address","internalType":"address"},{"name":"collectionKind_","type":"uint8","internalType":"uint8"},{"name":"maxSupply_","type":"uint256","internalType":"uint256"},{"name":"mintPriceWei_","type":"uint256","internalType":"uint256"},{"name":"royaltyReceiver","type":"address","internalType":"address"},{"name":"royaltyBps","type":"uint96","internalType":"uint96"}],"stateMutability":"nonpayable"},{"type":"function","name":"approve","inputs":[{"name":"to","type":"address","internalType":"address"},{"name":"tokenId","type":"uint256","internalType":"uint256"}],"outputs":[],"stateMutability":"nonpayable"},{"type":"function","name":"balanceOf","inputs":[{"name":"owner","type":"address","internalType":"address"}],"outputs":[{"name":"","type":"uint256","internalType":"uint256"}],"stateMutability":"view"},{"type":"function","name":"collectionKind","inputs":[],"outputs":[{"name":"","type":"uint8","internalType":"uint8"}],"stateMutability":"view"},{"type":"function","name":"getApproved","inputs":[{"name":"tokenId","type":"uint256","internalType":"uint256"}],"outputs":[{"name":"","type":"address","internalType":"address"}],"stateMutability":"view"},{"type":"function","name":"isApprovedForAll","inputs":[{"name":"owner","type":"address","internalType":"address"},{"name":"operator","type":"address","internalType":"address"}],"outputs":[{"name":"","type":"bool","internalType":"bool"}],"stateMutability":"view"},{"type":"function","name":"maxSupply","inputs":[],"outputs":[{"name":"","type":"uint256","internalType":"uint256"}],"stateMutability":"view"},{"type":"function","name":"mint","inputs":[{"name":"uri","type":"string","internalType":"string"}],"outputs":[{"name":"tokenId","type":"uint256","internalType":"uint256"}],"stateMutability":"payable"},{"type":"function","name":"mintPriceWei","inputs":[],"outputs":[{"name":"","type":"uint256","internalType":"uint256"}],"stateMutability":"view"},{"type":"function","name":"mintTo","inputs":[{"name":"to","type":"address","internalType":"address"},{"name":"uri","type":"string","internalType":"string"}],"outputs":[{"name":"tokenId","type":"uint256","internalType":"uint256"}],"stateMutability":"nonpayable"},{"type":"function","name":"name","inputs":[],"outputs":[{"name":"","type":"string","internalType":"string"}],"stateMutability":"view"},{"type":"function","name":"owner","inputs":[],"outputs":[{"name":"","type":"address","internalType":"address"}],"stateMutability":"view"},{"type":"function","name":"ownerOf","inputs":[{"name":"tokenId","type":"uint256","internalType":"uint256"}],"outputs":[{"name":"","type":"address","internalType":"address"}],"stateMutability":"view"},{"type":"function","name":"renounceOwnership","inputs":[],"outputs":[],"stateMutability":"nonpayable"},{"type":"function","name":"royaltyInfo","inputs":[{"name":"tokenId","type":"uint256","internalType":"uint256"},{"name":"salePrice","type":"uint256","internalType":"uint256"}],"outputs":[{"name":"receiver","type":"address","internalType":"address"},{"name":"amount","type":"uint256","internalType":"uint256"}],"stateMutability":"view"},{"type":"function","name":"safeTransferFrom","inputs":[{"name":"from","type":"address","internalType":"address"},{"name":"to","type":"address","internalType":"address"},{"name":"tokenId","type":"uint256","internalType":"uint256"}],"outputs":[],"stateMutability":"nonpayable"},{"type":"function","name":"safeTransferFrom","inputs":[{"name":"from","type":"address","internalType":"address"},{"name":"to","type":"address","internalType":"address"},{"name":"tokenId","type":"uint256","internalType":"uint256"},{"name":"data","type":"bytes","internalType":"bytes"}],"outputs":[],"stateMutability":"nonpayable"},{"type":"function","name":"setApprovalForAll","inputs":[{"name":"operator","type":"address","internalType":"address"},{"name":"approved","type":"bool","internalType":"bool"}],"outputs":[],"stateMutability":"nonpayable"},{"type":"function","name":"setBaseURI","inputs":[{"name":"baseUri","type":"string","internalType":"string"}],"outputs":[],"stateMutability":"nonpayable"},{"type":"function","name":"setMaxSupply","inputs":[{"name":"newMax","type":"uint256","internalType":"uint256"}],"outputs":[],"stateMutability":"nonpayable"},{"type":"function","name":"setMintPrice","inputs":[{"name":"newPriceWei","type":"uint256","internalType":"uint256"}],"outputs":[],"stateMutability":"nonpayable"},{"type":"function","name":"supportsInterface","inputs":[{"name":"interfaceId","type":"bytes4","internalType":"bytes4"}],"outputs":[{"name":"","type":"bool","internalType":"bool"}],"stateMutability":"view"},{"type":"function","name":"symbol","inputs":[],"outputs":[{"name":"","type":"string","internalType":"string"}],"stateMutability":"view"},{"type":"function","name":"tokenURI","inputs":[{"name":"tokenId","type":"uint256","internalType":"uint256"}],"outputs":[{"name":"","type":"string","internalType":"string"}],"stateMutability":"view"},{"type":"function","name":"transferFrom","inputs":[{"name":"from","type":"address","internalType":"address"},{"name":"to","type":"address","internalType":"address"},{"name":"tokenId","type":"uint256","internalType":"uint256"}],"outputs":[],"stateMutability":"nonpayable"},{"type":"function","name":"transferOwnership","inputs":[{"name":"newOwner","type":"address","internalType":"address"}],"outputs":[],"stateMutability":"nonpayable"},{"type":"function","name":"withdrawETH","inputs":[],"outputs":[],"stateMutability":"nonpayable"},{"type":"event","name":"Approval","inputs":[{"name":"owner","type":"address","indexed":true,"internalType":"address"},{"name":"approved","type":"address","indexed":true,"internalType":"address"},{"name":"tokenId","type":"uint256","indexed":true,"internalType":"uint256"}],"anonymous":false},{"type":"event","name":"ApprovalForAll","inputs":[{"name":"owner","type":"address","indexed":true,"internalType":"address"},{"name":"operator","type":"address","indexed":true,"internalType":"address"},{"name":"approved","type":"bool","indexed":false,"internalType":"bool"}],"anonymous":false},{"type":"event","name":"BatchMetadataUpdate","inputs":[{"name":"_fromTokenId","type":"uint256","indexed":false,"internalType":"uint256"},{"name":"_toTokenId","type":"uint256","indexed":false,"internalType":"uint256"}],"anonymous":false},{"type":"event","name":"MetadataUpdate","inputs":[{"name":"_tokenId","type":"uint256","indexed":false,"internalType":"uint256"}],"anonymous":false},{"type":"event","name":"Minted","inputs":[{"name":"to","type":"address","indexed":true,"internalType":"address"},{"name":"tokenId","type":"uint256","indexed":true,"internalType":"uint256"},{"name":"paidMint","type":"bool","indexed":true,"internalType":"bool"}],"anonymous":false},{"type":"event","name":"OwnershipTransferred","inputs":[{"name":"previousOwner","type":"address","indexed":true,"internalType":"address"},{"name":"newOwner","type":"address","indexed":true,"internalType":"address"}],"anonymous":false},{"type":"event","name":"Transfer","inputs":[{"name":"from","type":"address","indexed":true,"internalType":"address"},{"name":"to","type":"address","indexed":true,"internalType":"address"},{"name":"tokenId","type":"uint256","indexed":true,"internalType":"uint256"}],"anonymous":false},{"type":"error","name":"ERC2981InvalidDefaultRoyalty","inputs":[{"name":"numerator","type":"uint256","internalType":"uint256"},{"name":"denominator","type":"uint256","internalType":"uint256"}]},{"type":"error","name":"ERC2981InvalidDefaultRoyaltyReceiver","inputs":[{"name":"receiver","type":"address","internalType":"address"}]},{"type":"error","name":"ERC2981InvalidTokenRoyalty","inputs":[{"name":"tokenId","type":"uint256","internalType":"uint256"},{"name":"numerator","type":"uint256","internalType":"uint256"},{"name":"denominator","type":"uint256","internalType":"uint256"}]},{"type":"error","name":"ERC2981InvalidTokenRoyaltyReceiver","inputs":[{"name":"tokenId","type":"uint256","internalType":"uint256"},{"name":"receiver","type":"address","internalType":"address"}]},{"type":"error","name":"ERC721IncorrectOwner","inputs":[{"name":"sender","type":"address","internalType":"address"},{"name":"tokenId","type":"uint256","internalType":"uint256"},{"name":"owner","type":"address","internalType":"address"}]},{"type":"error","name":"ERC721InsufficientApproval","inputs":[{"name":"operator","type":"address","internalType":"address"},{"name":"tokenId","type":"uint256","internalType":"uint256"}]},{"type":"error","name":"ERC721InvalidApprover","inputs":[{"name":"approver","type":"address","internalType":"address"}]},{"type":"error","name":"ERC721InvalidOperator","inputs":[{"name":"operator","type":"address","internalType":"address"}]},{"type":"error","name":"ERC721InvalidOwner","inputs":[{"name":"owner","type":"address","internalType":"address"}]},{"type":"error","name":"ERC721InvalidReceiver","inputs":[{"name":"receiver","type":"address","internalType":"address"}]},{"type":"error","name":"ERC721InvalidSender","inputs":[{"name":"sender","type":"address","internalType":"address"}]},{"type":"error","name":"ERC721NonexistentToken","inputs":[{"name":"tokenId","type":"uint256","internalType":"uint256"}]},{"type":"error","name":"OwnableInvalidOwner","inputs":[{"name":"owner","type":"address","internalType":"address"}]},{"type":"error","name":"OwnableUnauthorizedAccount","inputs":[{"name":"account","type":"address","internalType":"address"}]},{"type":"error","name":"ReentrancyGuardReentrantCall","inputs":[]}],"bytecode":{"object":"0x60a06040526001600c5534801562000015575f80fd5b50604051620022b4380380620022b48339810160408190526200003891620003ba565b8588885f6200004883826200050c565b5060016200005782826200050c565b5050506001600160a01b0381166200008957604051631e4fbdf760e01b81525f60048201526024015b60405180910390fd5b6200009481620001cf565b5060017f9b779b17422d0df92223018b32b4d1fa46e071723d6817e2486d003becc55f0055600360ff861610620001015760405162461bcd60e51b815260206004820152601060248201526f10dc99585d1bdc9391950e881ada5b9960821b604482015260640162000080565b5f8411620001475760405162461bcd60e51b815260206004820152601260248201527143726561746f724e46543a20737570706c7960701b604482015260640162000080565b6109c4816001600160601b03161115620001a45760405162461bcd60e51b815260206004820152601360248201527f43726561746f724e46543a20726f79616c747900000000000000000000000000604482015260640162000080565b60ff8516608052600a849055600b839055620001c1828262000220565b5050505050505050620005d8565b600980546001600160a01b038381166001600160a01b0319831681179093556040519116919082907f8be0079c531659141344cd1fd0a4f28419497f9722a3daafe3b4186f6b6457e0905f90a35050565b6127106001600160601b0382168110156200026157604051636f483d0960e01b81526001600160601b03831660048201526024810182905260440162000080565b6001600160a01b0383166200028c57604051635b6cc80560e11b81525f600482015260240162000080565b50604080518082019091526001600160a01b039092168083526001600160601b039091166020909201829052600160a01b90910217600755565b634e487b7160e01b5f52604160045260245ffd5b5f82601f830112620002ea575f80fd5b81516001600160401b0380821115620003075762000307620002c6565b604051601f8301601f19908116603f01168101908282118183101715620003325762000332620002c6565b81604052838152602092508660208588010111156200034f575f80fd5b5f91505b8382101562000372578582018301518183018401529082019062000353565b5f602085830101528094505050505092915050565b80516001600160a01b03811681146200039e575f80fd5b919050565b80516001600160601b03811681146200039e575f80fd5b5f805f805f805f80610100898b031215620003d3575f80fd5b88516001600160401b0380821115620003ea575f80fd5b620003f88c838d01620002da565b995060208b01519150808211156200040e575f80fd5b506200041d8b828c01620002da565b9750506200042e60408a0162000387565b9550606089015160ff8116811462000444575f80fd5b60808a015160a08b0151919650945092506200046360c08a0162000387565b91506200047360e08a01620003a3565b90509295985092959890939650565b600181811c908216806200049757607f821691505b602082108103620004b657634e487b7160e01b5f52602260045260245ffd5b50919050565b601f8211156200050757805f5260205f20601f840160051c81016020851015620004e35750805b601f840160051c820191505b8181101562000504575f8155600101620004ef565b50505b505050565b81516001600160401b03811115620005285762000528620002c6565b620005408162000539845462000482565b84620004bc565b602080601f83116001811462000576575f84156200055e5750858301515b5f19600386901b1c1916600185901b178555620005d0565b5f85815260208120601f198616915b82811015620005a65788860151825594840194600190910190840162000585565b5085821015620005c457878501515f19600388901b60f8161c191681555b505060018460011b0185555b505050505050565b608051611cc3620005f15f395f6103c50152611cc35ff3fe60806040526004361061017a575f3560e01c80638da5cb5b116100cd578063cb2c972211610087578063e086e5ec11610062578063e086e5ec14610474578063e985e9c514610488578063f2fde38b146104a7578063f4a0a528146104c6575f80fd5b8063cb2c972214610437578063d5abeb011461044c578063d85d3d2714610461575f80fd5b80638da5cb5b1461036457806395d89b4114610381578063a22cb46514610395578063a30b668f146103b4578063b88d4fde146103f9578063c87b56dd14610418575f80fd5b80632a55205a116101385780636352211e116101135780636352211e146102f35780636f8b44b01461031257806370a0823114610331578063715018a614610350575f80fd5b80632a55205a1461027757806342842e0e146102b557806355f804b3146102d4575f80fd5b806275a3171461017e57806301ffc9a7146101b057806306fdde03146101df578063081812fc14610200578063095ea7b31461023757806323b872dd14610258575b5f80fd5b348015610189575f80fd5b5061019d610198366004611660565b6104e5565b6040519081526020015b60405180910390f35b3480156101bb575f80fd5b506101cf6101ca3660046116c4565b6105fe565b60405190151581526020016101a7565b3480156101ea575f80fd5b506101f361060e565b6040516101a7919061172c565b34801561020b575f80fd5b5061021f61021a36600461173e565b61069d565b6040516001600160a01b0390911681526020016101a7565b348015610242575f80fd5b50610256610251366004611755565b6106c4565b005b348015610263575f80fd5b5061025661027236600461177d565b6106d3565b348015610282575f80fd5b506102966102913660046117b6565b61075c565b604080516001600160a01b0390931683526020830191909152016101a7565b3480156102c0575f80fd5b506102566102cf36600461177d565b6107e1565b3480156102df575f80fd5b506102566102ee3660046117d6565b610800565b3480156102fe575f80fd5b5061021f61030d36600461173e565b610815565b34801561031d575f80fd5b5061025661032c36600461173e565b61081f565b34801561033c575f80fd5b5061019d61034b366004611815565b61088a565b34801561035b575f80fd5b506102566108cf565b34801561036f575f80fd5b506009546001600160a01b031661021f565b34801561038c575f80fd5b506101f36108e2565b3480156103a0575f80fd5b506102566103af36600461182e565b6108f1565b3480156103bf575f80fd5b506103e77f000000000000000000000000000000000000000000000000000000000000000081565b60405160ff90911681526020016101a7565b348015610404575f80fd5b5061025661041336600461187b565b6108fc565b348015610423575f80fd5b506101f361043236600461173e565b610914565b348015610442575f80fd5b5061019d600b5481565b348015610457575f80fd5b5061019d600a5481565b61019d61046f3660046117d6565b610989565b34801561047f575f80fd5b50610256610ad8565b348015610493575f80fd5b506101cf6104a2366004611950565b610be9565b3480156104b2575f80fd5b506102566104c1366004611815565b610c16565b3480156104d1575f80fd5b506102566104e036600461173e565b610c53565b5f6104ee610c60565b6104f6610c8d565b600a54600c5411156105465760405162461bcd60e51b815260206004820152601460248201527310dc99585d1bdc9391950e881cdbdb19081bdd5d60621b60448201526064015b60405180910390fd5b600c8054905f61055583611995565b9190505590506105658482610ca8565b81156105aa576105aa8184848080601f0160208091040260200160405190810160405280939291908181526020018383808284375f92019190915250610cc192505050565b6040515f9082906001600160a01b038716907f53ad8893610de0fa6656f026deb942f5cde3d84f4c68f80c8b376f70c1a0f389908490a46105f760015f80516020611c6e83398151915255565b9392505050565b5f61060882610d10565b92915050565b60605f805461061c906119ad565b80601f0160208091040260200160405190810160405280929190818152602001828054610648906119ad565b80156106935780601f1061066a57610100808354040283529160200191610693565b820191905f5260205f20905b81548152906001019060200180831161067657829003601f168201915b5050505050905090565b5f6106a782610d34565b505f828152600460205260409020546001600160a01b0316610608565b6106cf828233610d6c565b5050565b6001600160a01b0382166106fc57604051633250574960e11b81525f600482015260240161053d565b5f610708838333610d79565b9050836001600160a01b0316816001600160a01b031614610756576040516364283d7b60e01b81526001600160a01b038086166004830152602482018490528216604482015260640161053d565b50505050565b5f82815260086020526040812080548291906001600160a01b03811690600160a01b90046001600160601b0316816107af5750506007546001600160a01b03811690600160a01b90046001600160601b03165b5f6127106107c66001600160601b038416896119e5565b6107d091906119fc565b9295509193505050505b9250929050565b6107fb83838360405180602001604052805f8152506108fc565b505050565b610808610c60565b600d6107fb828483611a5f565b5f61060882610d34565b610827610c60565b6001600c546108369190611b19565b8110156108855760405162461bcd60e51b815260206004820152601c60248201527f43726561746f724e46543a206d61782062656c6f77206d696e74656400000000604482015260640161053d565b600a55565b5f6001600160a01b0382166108b4576040516322718ad960e21b81525f600482015260240161053d565b506001600160a01b03165f9081526003602052604090205490565b6108d7610c60565b6108e05f610e6b565b565b60606001805461061c906119ad565b6106cf338383610ebc565b6109078484846106d3565b6107563385858585610f83565b606061091f82610d34565b505f6109296110ab565b90505f610935846110ba565b905081515f03610946579392505050565b805115610978578181604051602001610960929190611b2c565b60405160208183030381529060405292505050919050565b61098184611159565b949350505050565b5f610992610c8d565b600a54600c5411156109dd5760405162461bcd60e51b815260206004820152601460248201527310dc99585d1bdc9391950e881cdbdb19081bdd5d60621b604482015260640161053d565b600b5415610a2b57600b54341015610a2b5760405162461bcd60e51b815260206004820152601160248201527043726561746f724e46543a20707269636560781b604482015260640161053d565b600c8054905f610a3a83611995565b919050559050610a4a3382610ca8565b8115610a8f57610a8f8184848080601f0160208091040260200160405190810160405280939291908181526020018383808284375f92019190915250610cc192505050565b600b5460405190151590829033907f53ad8893610de0fa6656f026deb942f5cde3d84f4c68f80c8b376f70c1a0f389905f90a461060860015f80516020611c6e83398151915255565b610ae0610c60565b610ae8610c8d565b4780610b2a5760405162461bcd60e51b815260206004820152601160248201527043726561746f724e46543a20656d70747960781b604482015260640161053d565b5f610b3d6009546001600160a01b031690565b6001600160a01b0316826040515f6040518083038185875af1925050503d805f8114610b84576040519150601f19603f3d011682016040523d82523d5f602084013e610b89565b606091505b5050905080610bd15760405162461bcd60e51b815260206004820152601460248201527343726561746f724e46543a20776974686472617760601b604482015260640161053d565b50506108e060015f80516020611c6e83398151915255565b6001600160a01b039182165f90815260056020908152604080832093909416825291909152205460ff1690565b610c1e610c60565b6001600160a01b038116610c4757604051631e4fbdf760e01b81525f600482015260240161053d565b610c5081610e6b565b50565b610c5b610c60565b600b55565b6009546001600160a01b031633146108e05760405163118cdaa760e01b815233600482015260240161053d565b610c956111bd565b60025f80516020611c6e83398151915255565b6106cf828260405180602001604052805f8152506111ec565b5f828152600660205260409020610cd88282611b5a565b506040518281527ff8e1a15aba9398e019f0b49df1a4fde98ee17ae345cb5f6b5e2c27f5033e8ce79060200160405180910390a15050565b5f6001600160e01b0319821663152a902d60e11b1480610608575061060882611203565b5f818152600260205260408120546001600160a01b03168061060857604051637e27328960e01b81526004810184905260240161053d565b6107fb8383836001611227565b5f828152600260205260408120546001600160a01b0390811690831615610da557610da581848661132b565b6001600160a01b03811615610ddf57610dc05f855f80611227565b6001600160a01b0381165f90815260036020526040902080545f190190555b6001600160a01b03851615610e0d576001600160a01b0385165f908152600360205260409020805460010190555b5f8481526002602052604080822080546001600160a01b0319166001600160a01b0389811691821790925591518793918516917fddf252ad1be2c89b69c2b068fc378daa952ba7f163c4a11628f55a4df523b3ef91a4949350505050565b600980546001600160a01b038381166001600160a01b0319831681179093556040519116919082907f8be0079c531659141344cd1fd0a4f28419497f9722a3daafe3b4186f6b6457e0905f90a35050565b6001600160a01b038316610ee55760405163a9fbf51f60e01b81525f600482015260240161053d565b6001600160a01b038216610f1757604051630b61174360e31b81526001600160a01b038316600482015260240161053d565b6001600160a01b038381165f81815260056020908152604080832094871680845294825291829020805460ff191686151590811790915591519182527f17307eab39ab6107e8899845ad3d59bd9653f200f220920489ca2b5937696c31910160405180910390a3505050565b6001600160a01b0383163b156110a457604051630a85bd0160e11b81526001600160a01b0384169063150b7a0290610fc5908890889087908790600401611c16565b6020604051808303815f875af1925050508015610fff575060408051601f3d908101601f19168201909252610ffc91810190611c52565b60015b611066573d80801561102c576040519150601f19603f3d011682016040523d82523d5f602084013e611031565b606091505b5080515f0361105e57604051633250574960e11b81526001600160a01b038516600482015260240161053d565b805160208201fd5b6001600160e01b03198116630a85bd0160e11b146110a257604051633250574960e11b81526001600160a01b038516600482015260240161053d565b505b5050505050565b6060600d805461061c906119ad565b5f8181526006602052604090208054606091906110d6906119ad565b80601f0160208091040260200160405190810160405280929190818152602001828054611102906119ad565b801561114d5780601f106111245761010080835404028352916020019161114d565b820191905f5260205f20905b81548152906001019060200180831161113057829003601f168201915b50505050509050919050565b606061116482610d34565b505f61116e6110ab565b90505f81511161118c5760405180602001604052805f8152506105f7565b806111968461138f565b6040516020016111a7929190611b2c565b6040516020818303038152906040529392505050565b5f80516020611c6e833981519152546002036108e057604051633ee5aeb560e01b815260040160405180910390fd5b6111f6838361141f565b6107fb335f858585610f83565b5f6001600160e01b03198216632483248360e11b1480610608575061060882611480565b808061123b57506001600160a01b03821615155b156112fc575f61124a84610d34565b90506001600160a01b038316158015906112765750826001600160a01b0316816001600160a01b031614155b801561128957506112878184610be9565b155b156112b25760405163a9fbf51f60e01b81526001600160a01b038416600482015260240161053d565b81156112fa5783856001600160a01b0316826001600160a01b03167f8c5be1e5ebec7d5bd14f71427d1e84f3dd0314c0f7b2291e5b200ac8c7c3b92560405160405180910390a45b505b50505f90815260046020526040902080546001600160a01b0319166001600160a01b0392909216919091179055565b6113368383836114cf565b6107fb576001600160a01b03831661136457604051637e27328960e01b81526004810182905260240161053d565b60405163177e802f60e01b81526001600160a01b03831660048201526024810182905260440161053d565b60605f61139b83611530565b60010190505f8167ffffffffffffffff8111156113ba576113ba611867565b6040519080825280601f01601f1916602001820160405280156113e4576020820181803683370190505b5090508181016020015b5f19016f181899199a1a9b1b9c1cb0b131b232b360811b600a86061a8153600a85049450846113ee57509392505050565b6001600160a01b03821661144857604051633250574960e11b81525f600482015260240161053d565b5f61145483835f610d79565b90506001600160a01b038116156107fb576040516339e3563760e11b81525f600482015260240161053d565b5f6001600160e01b031982166380ac58cd60e01b14806114b057506001600160e01b03198216635b5e139f60e01b145b8061060857506301ffc9a760e01b6001600160e01b0319831614610608565b5f6001600160a01b038316158015906109815750826001600160a01b0316846001600160a01b0316148061150857506115088484610be9565b806109815750505f908152600460205260409020546001600160a01b03908116911614919050565b5f8072184f03e93ff9f4daa797ed6e38ed64bf6a1f0160401b831061156e5772184f03e93ff9f4daa797ed6e38ed64bf6a1f0160401b830492506040015b6d04ee2d6d415b85acef8100000000831061159a576d04ee2d6d415b85acef8100000000830492506020015b662386f26fc1000083106115b857662386f26fc10000830492506010015b6305f5e10083106115d0576305f5e100830492506008015b61271083106115e457612710830492506004015b606483106115f6576064830492506002015b600a83106106085760010192915050565b80356001600160a01b038116811461161d575f80fd5b919050565b5f8083601f840112611632575f80fd5b50813567ffffffffffffffff811115611649575f80fd5b6020830191508360208285010111156107da575f80fd5b5f805f60408486031215611672575f80fd5b61167b84611607565b9250602084013567ffffffffffffffff811115611696575f80fd5b6116a286828701611622565b9497909650939450505050565b6001600160e01b031981168114610c50575f80fd5b5f602082840312156116d4575f80fd5b81356105f7816116af565b5f5b838110156116f95781810151838201526020016116e1565b50505f910152565b5f81518084526117188160208601602086016116df565b601f01601f19169290920160200192915050565b602081525f6105f76020830184611701565b5f6020828403121561174e575f80fd5b5035919050565b5f8060408385031215611766575f80fd5b61176f83611607565b946020939093013593505050565b5f805f6060848603121561178f575f80fd5b61179884611607565b92506117a660208501611607565b9150604084013590509250925092565b5f80604083850312156117c7575f80fd5b50508035926020909101359150565b5f80602083850312156117e7575f80fd5b823567ffffffffffffffff8111156117fd575f80fd5b61180985828601611622565b90969095509350505050565b5f60208284031215611825575f80fd5b6105f782611607565b5f806040838503121561183f575f80fd5b61184883611607565b91506020830135801515811461185c575f80fd5b809150509250929050565b634e487b7160e01b5f52604160045260245ffd5b5f805f806080858703121561188e575f80fd5b61189785611607565b93506118a560208601611607565b925060408501359150606085013567ffffffffffffffff808211156118c8575f80fd5b818701915087601f8301126118db575f80fd5b8135818111156118ed576118ed611867565b604051601f8201601f19908116603f0116810190838211818310171561191557611915611867565b816040528281528a602084870101111561192d575f80fd5b826020860160208301375f60208483010152809550505050505092959194509250565b5f8060408385031215611961575f80fd5b61196a83611607565b915061197860208401611607565b90509250929050565b634e487b7160e01b5f52601160045260245ffd5b5f600182016119a6576119a6611981565b5060010190565b600181811c908216806119c157607f821691505b6020821081036119df57634e487b7160e01b5f52602260045260245ffd5b50919050565b808202811582820484141761060857610608611981565b5f82611a1657634e487b7160e01b5f52601260045260245ffd5b500490565b601f8211156107fb57805f5260205f20601f840160051c81016020851015611a405750805b601f840160051c820191505b818110156110a4575f8155600101611a4c565b67ffffffffffffffff831115611a7757611a77611867565b611a8b83611a8583546119ad565b83611a1b565b5f601f841160018114611abc575f8515611aa55750838201355b5f19600387901b1c1916600186901b1783556110a4565b5f83815260208120601f198716915b82811015611aeb5786850135825560209485019460019092019101611acb565b5086821015611b07575f1960f88860031b161c19848701351681555b505060018560011b0183555050505050565b8181038181111561060857610608611981565b5f8351611b3d8184602088016116df565b835190830190611b518183602088016116df565b01949350505050565b815167ffffffffffffffff811115611b7457611b74611867565b611b8881611b8284546119ad565b84611a1b565b602080601f831160018114611bbb575f8415611ba45750858301515b5f19600386901b1c1916600185901b1785556110a2565b5f85815260208120601f198616915b82811015611be957888601518255948401946001909101908401611bca565b5085821015611c0657878501515f19600388901b60f8161c191681555b5050505050600190811b01905550565b6001600160a01b03858116825284166020820152604081018390526080606082018190525f90611c4890830184611701565b9695505050505050565b5f60208284031215611c62575f80fd5b81516105f7816116af56fe9b779b17422d0df92223018b32b4d1fa46e071723d6817e2486d003becc55f00a2646970667358221220e8d755b415438e69aa6105771740e95e5dd49bc1dc3146be5956d183644a324e64736f6c63430008180033","linkReferences":{}},"methodIdentifiers":{"approve(address,uint256)":"095ea7b3","balanceOf(address)":"70a08231","collectionKind()":"a30b668f","getApproved(uint256)":"081812fc","isApprovedForAll(address,address)":"e985e9c5","maxSupply()":"d5abeb01","mint(string)":"d85d3d27","mintPriceWei()":"cb2c9722","mintTo(address,string)":"0075a317","name()":"06fdde03","owner()":"8da5cb5b","ownerOf(uint256)":"6352211e","renounceOwnership()":"715018a6","royaltyInfo(uint256,uint256)":"2a55205a","safeTransferFrom(address,address,uint256)":"42842e0e","safeTransferFrom(address,address,uint256,bytes)":"b88d4fde","setApprovalForAll(address,bool)":"a22cb465","setBaseURI(string)":"55f804b3","setMaxSupply(uint256)":"6f8b44b0","setMintPrice(uint256)":"f4a0a528","supportsInterface(bytes4)":"01ffc9a7","symbol()":"95d89b41","tokenURI(uint256)":"c87b56dd","transferFrom(address,address,uint256)":"23b872dd","transferOwnership(address)":"f2fde38b","withdrawETH()":"e086e5ec"},"id":86}