{"abi":[{"type":"constructor","inputs":[{"name":"initialOwner","type":"address","internalType":"address"}],"stateMutability":"nonpayable"},{"type":"function","name":"deployCreatorToken","inputs":[{"name":"name_","type":"string","internalType":"string"},{"name":"symbol_","type":"string","internalType":"string"},{"name":"initialSupply","type":"uint256","internalType":"uint256"}],"outputs":[{"name":"token","type":"address","internalType":"address"}],"stateMutability":"nonpayable"},{"type":"function","name":"owner","inputs":[],"outputs":[{"name":"","type":"address","internalType":"address"}],"stateMutability":"view"},{"type":"function","name":"renounceOwnership","inputs":[],"outputs":[],"stateMutability":"nonpayable"},{"type":"function","name":"transferOwnership","inputs":[{"name":"newOwner","type":"address","internalType":"address"}],"outputs":[],"stateMutability":"nonpayable"},{"type":"event","name":"CreatorTokenDeployed","inputs":[{"name":"creator","type":"address","indexed":true,"internalType":"address"},{"name":"token","type":"address","indexed":true,"internalType":"address"},{"name":"name","type":"string","indexed":false,"internalType":"string"},{"name":"symbol","type":"string","indexed":false,"internalType":"string"}],"anonymous":false},{"type":"event","name":"OwnershipTransferred","inputs":[{"name":"previousOwner","type":"address","indexed":true,"internalType":"address"},{"name":"newOwner","type":"address","indexed":true,"internalType":"address"}],"anonymous":false},{"type":"error","name":"OwnableInvalidOwner","inputs":[{"name":"owner","type":"address","internalType":"address"}]},{"type":"error","name":"OwnableUnauthorizedAccount","inputs":[{"name":"account","type":"address","internalType":"address"}]}],"bytecode":{"object":"0x608060405234801561000f575f80fd5b506040516112de3803806112de83398101604081905261002e916100bb565b806001600160a01b03811661005c57604051631e4fbdf760e01b81525f600482015260240160405180910390fd5b6100658161006c565b50506100e8565b5f80546001600160a01b038381166001600160a01b0319831681178455604051919092169283917f8be0079c531659141344cd1fd0a4f28419497f9722a3daafe3b4186f6b6457e09190a35050565b5f602082840312156100cb575f80fd5b81516001600160a01b03811681146100e1575f80fd5b9392505050565b6111e9806100f55f395ff3fe608060405234801562000010575f80fd5b506004361062000050575f3560e01c80631adc18331462000054578063715018a614620000875780638da5cb5b1462000093578063f2fde38b14620000a4575b5f80fd5b6200006b6200006536600462000290565b620000bb565b6040516001600160a01b03909116815260200160405180910390f35b620000916200015f565b005b5f546001600160a01b03166200006b565b62000091620000b536600462000305565b62000176565b5f80868686863387604051620000d1906200023a565b620000e2969594939291906200035c565b604051809103905ff080158015620000fc573d5f803e3d5ffd5b509050809150816001600160a01b0316336001600160a01b03167f09114a2b009af07e481114ecec52c710dec73dfa971647073ad3cddda08db834898989896040516200014d9493929190620003a5565b60405180910390a35095945050505050565b62000169620001bd565b620001745f620001eb565b565b62000180620001bd565b6001600160a01b038116620001af57604051631e4fbdf760e01b81525f60048201526024015b60405180910390fd5b620001ba81620001eb565b50565b5f546001600160a01b03163314620001745760405163118cdaa760e01b8152336004820152602401620001a6565b5f80546001600160a01b038381166001600160a01b0319831681178455604051919092169283917f8be0079c531659141344cd1fd0a4f28419497f9722a3daafe3b4186f6b6457e09190a35050565b610dd980620003db83390190565b5f8083601f84011262000259575f80fd5b50813567ffffffffffffffff81111562000271575f80fd5b60208301915083602082850101111562000289575f80fd5b9250929050565b5f805f805f60608688031215620002a5575f80fd5b853567ffffffffffffffff80821115620002bd575f80fd5b620002cb89838a0162000248565b90975095506020880135915080821115620002e4575f80fd5b50620002f38882890162000248565b96999598509660400135949350505050565b5f6020828403121562000316575f80fd5b81356001600160a01b03811681146200032d575f80fd5b9392505050565b81835281816020850137505f828201602090810191909152601f909101601f19169091010190565b608081525f6200037160808301888a62000334565b82810360208401526200038681878962000334565b6001600160a01b03959095166040840152505060600152949350505050565b604081525f620003ba60408301868862000334565b8281036020840152620003cf81858762000334565b97965050505050505056fe608060405234801562000010575f80fd5b5060405162000dd938038062000dd983398101604081905262000033916200032b565b818484600362000044838262000442565b50600462000053828262000442565b5050506001600160a01b0381166200008557604051631e4fbdf760e01b81525f60048201526024015b60405180910390fd5b6200009081620000ae565b508015620000a457620000a48282620000ff565b5050505062000534565b600580546001600160a01b038381166001600160a01b0319831681179093556040519116919082907f8be0079c531659141344cd1fd0a4f28419497f9722a3daafe3b4186f6b6457e0905f90a35050565b6001600160a01b0382166200012a5760405163ec442f0560e01b81525f60048201526024016200007c565b620001375f83836200013b565b5050565b6001600160a01b03831662000169578060025f8282546200015d91906200050e565b90915550620001db9050565b6001600160a01b0383165f9081526020819052604090205481811015620001bd5760405163391434e360e21b81526001600160a01b038516600482015260248101829052604481018390526064016200007c565b6001600160a01b0384165f9081526020819052604090209082900390555b6001600160a01b038216620001f95760028054829003905562000217565b6001600160a01b0382165f9081526020819052604090208054820190555b816001600160a01b0316836001600160a01b03167fddf252ad1be2c89b69c2b068fc378daa952ba7f163c4a11628f55a4df523b3ef836040516200025d91815260200190565b60405180910390a3505050565b634e487b7160e01b5f52604160045260245ffd5b5f82601f8301126200028e575f80fd5b81516001600160401b0380821115620002ab57620002ab6200026a565b604051601f8301601f19908116603f01168101908282118183101715620002d657620002d66200026a565b8160405283815260209250866020858801011115620002f3575f80fd5b5f91505b83821015620003165785820183015181830184015290820190620002f7565b5f602085830101528094505050505092915050565b5f805f80608085870312156200033f575f80fd5b84516001600160401b038082111562000356575f80fd5b62000364888389016200027e565b955060208701519150808211156200037a575f80fd5b5062000389878288016200027e565b604087015190945090506001600160a01b0381168114620003a8575f80fd5b6060959095015193969295505050565b600181811c90821680620003cd57607f821691505b602082108103620003ec57634e487b7160e01b5f52602260045260245ffd5b50919050565b601f8211156200043d57805f5260205f20601f840160051c81016020851015620004195750805b601f840160051c820191505b818110156200043a575f815560010162000425565b50505b505050565b81516001600160401b038111156200045e576200045e6200026a565b62000476816200046f8454620003b8565b84620003f2565b602080601f831160018114620004ac575f8415620004945750858301515b5f19600386901b1c1916600185901b17855562000506565b5f85815260208120601f198616915b82811015620004dc57888601518255948401946001909101908401620004bb565b5085821015620004fa57878501515f19600388901b60f8161c191681555b505060018460011b0185555b505050505050565b808201808211156200052e57634e487b7160e01b5f52601160045260245ffd5b92915050565b61089780620005425f395ff3fe608060405234801561000f575f80fd5b50600436106100cb575f3560e01c806370a082311161008857806395d89b411161006357806395d89b41146101a4578063a9059cbb146101ac578063dd62ed3e146101bf578063f2fde38b146101f7575f80fd5b806370a0823114610159578063715018a6146101815780638da5cb5b14610189575f80fd5b806306fdde03146100cf578063095ea7b3146100ed57806318160ddd1461011057806323b872dd14610122578063313ce5671461013557806340c10f1914610144575b5f80fd5b6100d761020a565b6040516100e491906106f1565b60405180910390f35b6101006100fb366004610758565b61029a565b60405190151581526020016100e4565b6002545b6040519081526020016100e4565b610100610130366004610780565b6102b3565b604051601281526020016100e4565b610157610152366004610758565b6102d6565b005b6101146101673660046107b9565b6001600160a01b03165f9081526020819052604090205490565b6101576102ec565b6005546040516001600160a01b0390911681526020016100e4565b6100d76102ff565b6101006101ba366004610758565b61030e565b6101146101cd3660046107d9565b6001600160a01b039182165f90815260016020908152604080832093909416825291909152205490565b6101576102053660046107b9565b61031b565b6060600380546102199061080a565b80601f01602080910402602001604051908101604052809291908181526020018280546102459061080a565b80156102905780601f1061026757610100808354040283529160200191610290565b820191905f5260205f20905b81548152906001019060200180831161027357829003601f168201915b5050505050905090565b5f336102a781858561035d565b60019150505b92915050565b5f336102c085828561036f565b6102cb8585856103ea565b506001949350505050565b6102de610447565b6102e88282610474565b5050565b6102f4610447565b6102fd5f6104a8565b565b6060600480546102199061080a565b5f336102a78185856103ea565b610323610447565b6001600160a01b03811661035157604051631e4fbdf760e01b81525f60048201526024015b60405180910390fd5b61035a816104a8565b50565b61036a83838360016104f9565b505050565b6001600160a01b038381165f908152600160209081526040808320938616835292905220545f1981146103e457818110156103d657604051637dc7a0d960e11b81526001600160a01b03841660048201526024810182905260448101839052606401610348565b6103e484848484035f6104f9565b50505050565b6001600160a01b03831661041357604051634b637e8f60e11b81525f6004820152602401610348565b6001600160a01b03821661043c5760405163ec442f0560e01b81525f6004820152602401610348565b61036a8383836105cb565b6005546001600160a01b031633146102fd5760405163118cdaa760e01b8152336004820152602401610348565b6001600160a01b03821661049d5760405163ec442f0560e01b81525f6004820152602401610348565b6102e85f83836105cb565b600580546001600160a01b038381166001600160a01b0319831681179093556040519116919082907f8be0079c531659141344cd1fd0a4f28419497f9722a3daafe3b4186f6b6457e0905f90a35050565b6001600160a01b0384166105225760405163e602df0560e01b81525f6004820152602401610348565b6001600160a01b03831661054b57604051634a1406b160e11b81525f6004820152602401610348565b6001600160a01b038085165f90815260016020908152604080832093871683529290522082905580156103e457826001600160a01b0316846001600160a01b03167f8c5be1e5ebec7d5bd14f71427d1e84f3dd0314c0f7b2291e5b200ac8c7c3b925846040516105bd91815260200190565b60405180910390a350505050565b6001600160a01b0383166105f5578060025f8282546105ea9190610842565b909155506106659050565b6001600160a01b0383165f90815260208190526040902054818110156106475760405163391434e360e21b81526001600160a01b03851660048201526024810182905260448101839052606401610348565b6001600160a01b0384165f9081526020819052604090209082900390555b6001600160a01b0382166106815760028054829003905561069f565b6001600160a01b0382165f9081526020819052604090208054820190555b816001600160a01b0316836001600160a01b03167fddf252ad1be2c89b69c2b068fc378daa952ba7f163c4a11628f55a4df523b3ef836040516106e491815260200190565b60405180910390a3505050565b5f602080835283518060208501525f5b8181101561071d57858101830151858201604001528201610701565b505f604082860101526040601f19601f8301168501019250505092915050565b80356001600160a01b0381168114610753575f80fd5b919050565b5f8060408385031215610769575f80fd5b6107728361073d565b946020939093013593505050565b5f805f60608486031215610792575f80fd5b61079b8461073d565b92506107a96020850161073d565b9150604084013590509250925092565b5f602082840312156107c9575f80fd5b6107d28261073d565b9392505050565b5f80604083850312156107ea575f80fd5b6107f38361073d565b91506108016020840161073d565b90509250929050565b600181811c9082168061081e57607f821691505b60208210810361083c57634e487b7160e01b5f52602260045260245ffd5b50919050565b808201808211156102ad57634e487b7160e01b5f52601160045260245ffdfea2646970667358221220e099704b9cd7bd6b464f8fd0869bee68a05a16bfb716eacf081364ca54e4bbcf64736f6c63430008180033a2646970667358221220e4593965be80b7fb683f35e814084f6e60d434b29fca9779ce94a26962ed10ce64736f6c63430008180033","linkReferences":{}},"methodIdentifiers":{"deployCreatorToken(string,string,uint256)":"1adc1833","owner()":"8da5cb5b","renounceOwnership()":"715018a6","transferOwnership(address)":"f2fde38b"},"id":33}