{"abi":[{"type":"constructor","inputs":[{"name":"asset_","type":"address","internalType":"contract IERC20"},{"name":"initialOwner","type":"address","internalType":"address"},{"name":"platform_","type":"address","internalType":"address"},{"name":"creator_","type":"address","internalType":"address"},{"name":"platformBps_","type":"uint256","internalType":"uint256"}],"stateMutability":"nonpayable"},{"type":"function","name":"asset","inputs":[],"outputs":[{"name":"","type":"address","internalType":"contract IERC20"}],"stateMutability":"view"},{"type":"function","name":"claimCreator","inputs":[],"outputs":[],"stateMutability":"nonpayable"},{"type":"function","name":"claimPlatform","inputs":[],"outputs":[],"stateMutability":"nonpayable"},{"type":"function","name":"creator","inputs":[],"outputs":[{"name":"","type":"address","internalType":"address"}],"stateMutability":"view"},{"type":"function","name":"creatorAccrued","inputs":[],"outputs":[{"name":"","type":"uint256","internalType":"uint256"}],"stateMutability":"view"},{"type":"function","name":"deposit","inputs":[{"name":"amount","type":"uint256","internalType":"uint256"}],"outputs":[],"stateMutability":"nonpayable"},{"type":"function","name":"owner","inputs":[],"outputs":[{"name":"","type":"address","internalType":"address"}],"stateMutability":"view"},{"type":"function","name":"platform","inputs":[],"outputs":[{"name":"","type":"address","internalType":"address"}],"stateMutability":"view"},{"type":"function","name":"platformAccrued","inputs":[],"outputs":[{"name":"","type":"uint256","internalType":"uint256"}],"stateMutability":"view"},{"type":"function","name":"platformBps","inputs":[],"outputs":[{"name":"","type":"uint256","internalType":"uint256"}],"stateMutability":"view"},{"type":"function","name":"renounceOwnership","inputs":[],"outputs":[],"stateMutability":"nonpayable"},{"type":"function","name":"setCreator","inputs":[{"name":"newCreator","type":"address","internalType":"address"}],"outputs":[],"stateMutability":"nonpayable"},{"type":"function","name":"setPlatform","inputs":[{"name":"newPlatform","type":"address","internalType":"address"}],"outputs":[],"stateMutability":"nonpayable"},{"type":"function","name":"setPlatformBps","inputs":[{"name":"newBps","type":"uint256","internalType":"uint256"}],"outputs":[],"stateMutability":"nonpayable"},{"type":"function","name":"transferOwnership","inputs":[{"name":"newOwner","type":"address","internalType":"address"}],"outputs":[],"stateMutability":"nonpayable"},{"type":"event","name":"CreatorClaimed","inputs":[{"name":"to","type":"address","indexed":true,"internalType":"address"},{"name":"amount","type":"uint256","indexed":false,"internalType":"uint256"}],"anonymous":false},{"type":"event","name":"CreatorUpdated","inputs":[{"name":"previousCreator","type":"address","indexed":true,"internalType":"address"},{"name":"newCreator","type":"address","indexed":true,"internalType":"address"}],"anonymous":false},{"type":"event","name":"Deposited","inputs":[{"name":"from","type":"address","indexed":true,"internalType":"address"},{"name":"amount","type":"uint256","indexed":false,"internalType":"uint256"}],"anonymous":false},{"type":"event","name":"OwnershipTransferred","inputs":[{"name":"previousOwner","type":"address","indexed":true,"internalType":"address"},{"name":"newOwner","type":"address","indexed":true,"internalType":"address"}],"anonymous":false},{"type":"event","name":"PlatformBpsUpdated","inputs":[{"name":"previousBps","type":"uint256","indexed":false,"internalType":"uint256"},{"name":"newBps","type":"uint256","indexed":false,"internalType":"uint256"}],"anonymous":false},{"type":"event","name":"PlatformClaimed","inputs":[{"name":"to","type":"address","indexed":true,"internalType":"address"},{"name":"amount","type":"uint256","indexed":false,"internalType":"uint256"}],"anonymous":false},{"type":"event","name":"PlatformUpdated","inputs":[{"name":"previousPlatform","type":"address","indexed":true,"internalType":"address"},{"name":"newPlatform","type":"address","indexed":true,"internalType":"address"}],"anonymous":false},{"type":"error","name":"AddressEmptyCode","inputs":[{"name":"target","type":"address","internalType":"address"}]},{"type":"error","name":"AddressInsufficientBalance","inputs":[{"name":"account","type":"address","internalType":"address"}]},{"type":"error","name":"FailedInnerCall","inputs":[]},{"type":"error","name":"OwnableInvalidOwner","inputs":[{"name":"owner","type":"address","internalType":"address"}]},{"type":"error","name":"OwnableUnauthorizedAccount","inputs":[{"name":"account","type":"address","internalType":"address"}]},{"type":"error","name":"SafeERC20FailedOperation","inputs":[{"name":"token","type":"address","internalType":"address"}]}],"bytecode":{"object":"0x60a060405234801561000f575f80fd5b50604051610c0a380380610c0a83398101604081905261002e9161014c565b836001600160a01b03811661005d57604051631e4fbdf760e01b81525f60048201526024015b60405180910390fd5b610066816100e6565b506127108111156100a95760405162461bcd60e51b815260206004820152600d60248201526c4665655661756c743a2062707360981b6044820152606401610054565b6001600160a01b03948516608052600180549386166001600160a01b031994851617905560028054929095169190921617909255506003556101b3565b5f80546001600160a01b038381166001600160a01b0319831681178455604051919092169283917f8be0079c531659141344cd1fd0a4f28419497f9722a3daafe3b4186f6b6457e09190a35050565b6001600160a01b0381168114610149575f80fd5b50565b5f805f805f60a08688031215610160575f80fd5b855161016b81610135565b602087015190955061017c81610135565b604087015190945061018d81610135565b606087015190935061019e81610135565b80925050608086015190509295509295909350565b608051610a2a6101e05f395f81816101520152818161026e01528181610336015261054f0152610a2a5ff3fe608060405234801561000f575f80fd5b50600436106100f0575f3560e01c80636945c5ea11610093578063b57f4d9c11610063578063b57f4d9c146101d8578063b6b55f25146101e1578063f2fde38b146101f4578063f76835e614610207575f80fd5b80636945c5ea1461019a578063715018a6146101ad5780638da5cb5b146101b5578063ac6c7bd1146101c5575f80fd5b8063232adc65116100ce578063232adc651461014557806338d52e0f1461014d5780633f516018146101745780634bde38c814610187575f80fd5b806302d05d3f146100f45780631150e874146101245780631d35d9941461012e575b5f80fd5b600254610107906001600160a01b031681565b6040516001600160a01b0390911681526020015b60405180910390f35b61012c610210565b005b61013760055481565b60405190815260200161011b565b61012c6102dd565b6101077f000000000000000000000000000000000000000000000000000000000000000081565b61012c6101823660046108fc565b61039e565b600154610107906001600160a01b031681565b61012c6101a83660046108fc565b610401565b61012c610464565b5f546001600160a01b0316610107565b61012c6101d3366004610922565b610477565b61013760045481565b61012c6101ef366004610922565b610502565b61012c6102023660046108fc565b61060a565b61013760035481565b600454806102595760405162461bcd60e51b81526020600482015260116024820152704665655661756c743a206e6f7468696e6760781b60448201526064015b60405180910390fd5b5f600455600154610297906001600160a01b037f00000000000000000000000000000000000000000000000000000000000000008116911683610647565b6001546040518281526001600160a01b03909116907fbd6715ee32a8f24ba4ced9af76b9312daae9484df516dba362dba2107a019b1d906020015b60405180910390a250565b600554806103215760405162461bcd60e51b81526020600482015260116024820152704665655661756c743a206e6f7468696e6760781b6044820152606401610250565b5f60055560025461035f906001600160a01b037f00000000000000000000000000000000000000000000000000000000000000008116911683610647565b6002546040518281526001600160a01b03909116907fd3a47810d5b7bf060f5a846b2900e17ee7ebfc6e5f09c2c5fc978b967375e3c4906020016102d2565b6103a66106ab565b6002546040516001600160a01b038084169216907f3fd5fa996ec802a4343695754eb4922a2cbba99ad7b6fa1af73a2881d62d7ddd905f90a3600280546001600160a01b0319166001600160a01b0392909216919091179055565b6104096106ab565b6001546040516001600160a01b038084169216907fccf7c8ab7aedfd798c03d9e20e653a33f1610b20698386b6a00f78a5c3bea6ea905f90a3600180546001600160a01b0319166001600160a01b0392909216919091179055565b61046c6106ab565b6104755f6106d7565b565b61047f6106ab565b6127108111156104c15760405162461bcd60e51b815260206004820152600d60248201526c4665655661756c743a2062707360981b6044820152606401610250565b60035460408051918252602082018390527fb785df757f37f15a8fe7dbaa061deba2537adae447b02276aedfcf52596312f8910160405180910390a1600355565b5f81116105425760405162461bcd60e51b815260206004820152600e60248201526d4665655661756c743a207a65726f60901b6044820152606401610250565b6105776001600160a01b037f000000000000000000000000000000000000000000000000000000000000000016333084610726565b5f61271060035483610589919061094d565b6105939190610964565b90505f6105a08284610983565b90508160045f8282546105b39190610996565b925050819055508060055f8282546105cb9190610996565b909155505060405183815233907f2da466a7b24304f47e87fa2e1e5a81b9831ce54fec19055ce277ca2f39ba42c49060200160405180910390a2505050565b6106126106ab565b6001600160a01b03811661063b57604051631e4fbdf760e01b81525f6004820152602401610250565b610644816106d7565b50565b6040516001600160a01b038381166024830152604482018390526106a691859182169063a9059cbb906064015b604051602081830303815290604052915060e01b6020820180516001600160e01b038381831617835250505050610765565b505050565b5f546001600160a01b031633146104755760405163118cdaa760e01b8152336004820152602401610250565b5f80546001600160a01b038381166001600160a01b0319831681178455604051919092169283917f8be0079c531659141344cd1fd0a4f28419497f9722a3daafe3b4186f6b6457e09190a35050565b6040516001600160a01b03848116602483015283811660448301526064820183905261075f9186918216906323b872dd90608401610674565b50505050565b5f6107796001600160a01b038416836107c6565b905080515f1415801561079d57508080602001905181019061079b91906109a9565b155b156106a657604051635274afe760e01b81526001600160a01b0384166004820152602401610250565b60606107d383835f6107dc565b90505b92915050565b6060814710156108015760405163cd78605960e01b8152306004820152602401610250565b5f80856001600160a01b0316848660405161081c91906109c8565b5f6040518083038185875af1925050503d805f8114610856576040519150601f19603f3d011682016040523d82523d5f602084013e61085b565b606091505b509150915061086b868383610877565b925050505b9392505050565b60608261088c57610887826108d3565b610870565b81511580156108a357506001600160a01b0384163b155b156108cc57604051639996b31560e01b81526001600160a01b0385166004820152602401610250565b5080610870565b8051156108e35780518082602001fd5b604051630a12f52160e11b815260040160405180910390fd5b5f6020828403121561090c575f80fd5b81356001600160a01b0381168114610870575f80fd5b5f60208284031215610932575f80fd5b5035919050565b634e487b7160e01b5f52601160045260245ffd5b80820281158282048414176107d6576107d6610939565b5f8261097e57634e487b7160e01b5f52601260045260245ffd5b500490565b818103818111156107d6576107d6610939565b808201808211156107d6576107d6610939565b5f602082840312156109b9575f80fd5b81518015158114610870575f80fd5b5f82515f5b818110156109e757602081860181015185830152016109cd565b505f92019182525091905056fea264697066735822122024d576ba829c506c03b2fa125ee8dbb765c2d04fcccaa583c7269afd91f3912464736f6c63430008180033","linkReferences":{}},"methodIdentifiers":{"asset()":"38d52e0f","claimCreator()":"232adc65","claimPlatform()":"1150e874","creator()":"02d05d3f","creatorAccrued()":"1d35d994","deposit(uint256)":"b6b55f25","owner()":"8da5cb5b","platform()":"4bde38c8","platformAccrued()":"b57f4d9c","platformBps()":"f76835e6","renounceOwnership()":"715018a6","setCreator(address)":"3f516018","setPlatform(address)":"6945c5ea","setPlatformBps(uint256)":"ac6c7bd1","transferOwnership(address)":"f2fde38b"},"id":34}