{"abi":[{"type":"constructor","inputs":[{"name":"initialOwner","type":"address","internalType":"address"},{"name":"feeRecipient_","type":"address","internalType":"address"},{"name":"platformFeeBps_","type":"uint256","internalType":"uint256"}],"stateMutability":"nonpayable"},{"type":"function","name":"buy","inputs":[{"name":"nft","type":"address","internalType":"address"},{"name":"tokenId","type":"uint256","internalType":"uint256"}],"outputs":[],"stateMutability":"payable"},{"type":"function","name":"cancel","inputs":[{"name":"nft","type":"address","internalType":"address"},{"name":"tokenId","type":"uint256","internalType":"uint256"}],"outputs":[],"stateMutability":"nonpayable"},{"type":"function","name":"feeRecipient","inputs":[],"outputs":[{"name":"","type":"address","internalType":"address"}],"stateMutability":"view"},{"type":"function","name":"list","inputs":[{"name":"nft","type":"address","internalType":"address"},{"name":"tokenId","type":"uint256","internalType":"uint256"},{"name":"priceWei","type":"uint256","internalType":"uint256"}],"outputs":[],"stateMutability":"nonpayable"},{"type":"function","name":"listings","inputs":[{"name":"nft","type":"address","internalType":"address"},{"name":"tokenId","type":"uint256","internalType":"uint256"}],"outputs":[{"name":"seller","type":"address","internalType":"address"},{"name":"priceWei","type":"uint256","internalType":"uint256"}],"stateMutability":"view"},{"type":"function","name":"owner","inputs":[],"outputs":[{"name":"","type":"address","internalType":"address"}],"stateMutability":"view"},{"type":"function","name":"platformFeeBps","inputs":[],"outputs":[{"name":"","type":"uint256","internalType":"uint256"}],"stateMutability":"view"},{"type":"function","name":"renounceOwnership","inputs":[],"outputs":[],"stateMutability":"nonpayable"},{"type":"function","name":"setFeeRecipient","inputs":[{"name":"r","type":"address","internalType":"address"}],"outputs":[],"stateMutability":"nonpayable"},{"type":"function","name":"setPlatformFeeBps","inputs":[{"name":"bps","type":"uint256","internalType":"uint256"}],"outputs":[],"stateMutability":"nonpayable"},{"type":"function","name":"transferOwnership","inputs":[{"name":"newOwner","type":"address","internalType":"address"}],"outputs":[],"stateMutability":"nonpayable"},{"type":"event","name":"Cancelled","inputs":[{"name":"nft","type":"address","indexed":true,"internalType":"address"},{"name":"tokenId","type":"uint256","indexed":true,"internalType":"uint256"},{"name":"seller","type":"address","indexed":true,"internalType":"address"}],"anonymous":false},{"type":"event","name":"FeeRecipientUpdated","inputs":[{"name":"previousRecipient","type":"address","indexed":true,"internalType":"address"},{"name":"newRecipient","type":"address","indexed":true,"internalType":"address"}],"anonymous":false},{"type":"event","name":"Listed","inputs":[{"name":"nft","type":"address","indexed":true,"internalType":"address"},{"name":"tokenId","type":"uint256","indexed":true,"internalType":"uint256"},{"name":"seller","type":"address","indexed":true,"internalType":"address"},{"name":"priceWei","type":"uint256","indexed":false,"internalType":"uint256"}],"anonymous":false},{"type":"event","name":"OwnershipTransferred","inputs":[{"name":"previousOwner","type":"address","indexed":true,"internalType":"address"},{"name":"newOwner","type":"address","indexed":true,"internalType":"address"}],"anonymous":false},{"type":"event","name":"PlatformFeeBpsUpdated","inputs":[{"name":"previousBps","type":"uint256","indexed":false,"internalType":"uint256"},{"name":"newBps","type":"uint256","indexed":false,"internalType":"uint256"}],"anonymous":false},{"type":"event","name":"Sold","inputs":[{"name":"nft","type":"address","indexed":true,"internalType":"address"},{"name":"tokenId","type":"uint256","indexed":true,"internalType":"uint256"},{"name":"seller","type":"address","indexed":false,"internalType":"address"},{"name":"buyer","type":"address","indexed":false,"internalType":"address"},{"name":"priceWei","type":"uint256","indexed":false,"internalType":"uint256"}],"anonymous":false},{"type":"error","name":"OwnableInvalidOwner","inputs":[{"name":"owner","type":"address","internalType":"address"}]},{"type":"error","name":"OwnableUnauthorizedAccount","inputs":[{"name":"account","type":"address","internalType":"address"}]},{"type":"error","name":"ReentrancyGuardReentrantCall","inputs":[]}],"bytecode":{"object":"0x608060405234801561000f575f80fd5b50604051610fd1380380610fd183398101604081905261002e9161015f565b826001600160a01b03811661005d57604051631e4fbdf760e01b81525f60048201526024015b60405180910390fd5b610066816100f5565b5060017f9b779b17422d0df92223018b32b4d1fa46e071723d6817e2486d003becc55f00556107d08111156100cb5760405162461bcd60e51b815260206004820152600b60248201526a4d61726b65743a2066656560a81b6044820152606401610054565b600280546001600160a01b0319166001600160a01b03939093169290921790915560035550610198565b5f80546001600160a01b038381166001600160a01b0319831681178455604051919092169283917f8be0079c531659141344cd1fd0a4f28419497f9722a3daafe3b4186f6b6457e09190a35050565b80516001600160a01b038116811461015a575f80fd5b919050565b5f805f60608486031215610171575f80fd5b61017a84610144565b925061018860208501610144565b9150604084015190509250925092565b610e2c806101a55f395ff3fe608060405260043610610099575f3560e01c806398590ef91161006257806398590ef914610193578063c580c942146101b2578063cce7ec13146101d1578063dda342bb146101e4578063e74b981b14610203578063f2fde38b14610222575f80fd5b806207df301461009d57806322dcd13e14610107578063469048401461012a578063715018a6146101615780638da5cb5b14610177575b5f80fd5b3480156100a8575f80fd5b506100e36100b7366004610c5c565b600160208181525f9384526040808520909152918352912080549101546001600160a01b039091169082565b604080516001600160a01b0390931683526020830191909152015b60405180910390f35b348015610112575f80fd5b5061011c60035481565b6040519081526020016100fe565b348015610135575f80fd5b50600254610149906001600160a01b031681565b6040516001600160a01b0390911681526020016100fe565b34801561016c575f80fd5b50610175610241565b005b348015610182575f80fd5b505f546001600160a01b0316610149565b34801561019e575f80fd5b506101756101ad366004610c5c565b610254565b3480156101bd575f80fd5b506101756101cc366004610c86565b6103bc565b6101756101df366004610c5c565b610445565b3480156101ef575f80fd5b506101756101fe366004610c9d565b610998565b34801561020e575f80fd5b5061017561021d366004610ccf565b610ae3565b34801561022d575f80fd5b5061017561023c366004610ccf565b610b46565b610249610b83565b6102525f610baf565b565b61025c610bfe565b6001600160a01b038083165f908152600160208181526040808420868552825292839020835180850190945280549094168084529390910154908201529033146102e25760405162461bcd60e51b815260206004820152601260248201527126b0b935b2ba1d103737ba1039b2b63632b960711b60448201526064015b60405180910390fd5b6001600160a01b0383165f81815260016020818152604080842087855290915280832080546001600160a01b031916815590910191909155516323b872dd60e01b81526323b872dd9061033d90309033908790600401610cf1565b5f604051808303815f87803b158015610354575f80fd5b505af1158015610366573d5f803e3d5ffd5b50506040513392508491506001600160a01b038616907f0c8fde439b4e72d175ffeb3c5f3c15c6f70f473413f4c2d68f8971c0d629b60d905f90a4506103b860015f80516020610dd783398151915255565b5050565b6103c4610b83565b6107d08111156104045760405162461bcd60e51b815260206004820152600b60248201526a4d61726b65743a2066656560a81b60448201526064016102d9565b60035460408051918252602082018390527fb7cf940f291738114d642ccbcbdedeeeddc0bb17e043b90365614d7159129d71910160405180910390a1600355565b61044d610bfe565b6001600160a01b038083165f90815260016020818152604080842086855282529283902083518085019094528054909416808452939091015490820152906104cc5760405162461bcd60e51b815260206004820152601260248201527113585c9ad95d0e881b9bdd081b1a5cdd195960721b60448201526064016102d9565b806020015134146105155760405162461bcd60e51b81526020600482015260136024820152724d61726b65743a2077726f6e672076616c756560681b60448201526064016102d9565b6001600160a01b0383165f81815260016020818152604080842087855290915280832080546001600160a01b0319168155909101829055516301ffc9a760e01b815263152a902d60e11b6004820152909182916301ffc9a790602401602060405180830381865afa15801561058c573d5f803e3d5ffd5b505050506040513d601f19601f820116820180604052508101906105b09190610d15565b1561064757602083015160405163152a902d60e11b81526001600160a01b03871691632a55205a916105ef918891600401918252602082015260400190565b6040805180830381865afa158015610609573d5f803e3d5ffd5b505050506040513d601f19601f8201168201806040525081019061062d9190610d34565b602085015190935090915082111561064757826020015191505b5f612710600354856020015161065d9190610d74565b6106679190610d91565b90505f8184866020015161067b9190610db0565b6106859190610db0565b6020860151909150826106988684610dc3565b6106a29190610dc3565b146106e05760405162461bcd60e51b815260206004820152600e60248201526d13585c9ad95d0e881c185e5bdd5d60921b60448201526064016102d9565b5f841180156106f757506001600160a01b03831615155b1561078f575f836001600160a01b0316856040515f6040518083038185875af1925050503d805f8114610745576040519150601f19603f3d011682016040523d82523d5f602084013e61074a565b606091505b505090508061078d5760405162461bcd60e51b815260206004820152600f60248201526e4d61726b65743a20726f79616c747960881b60448201526064016102d9565b505b5f821180156107a857506002546001600160a01b031615155b15610842576002546040515f916001600160a01b03169084908381818185875af1925050503d805f81146107f7576040519150601f19603f3d011682016040523d82523d5f602084013e6107fc565b606091505b50509050806108405760405162461bcd60e51b815260206004820152601060248201526f4d61726b65743a20706c6174666f726d60801b60448201526064016102d9565b505b84516040515f916001600160a01b03169083908381818185875af1925050503d805f811461088b576040519150601f19603f3d011682016040523d82523d5f602084013e610890565b606091505b50509050806108d25760405162461bcd60e51b815260206004820152600e60248201526d26b0b935b2ba1d1039b2b63632b960911b60448201526064016102d9565b6040516323b872dd60e01b81526001600160a01b038916906323b872dd9061090290309033908c90600401610cf1565b5f604051808303815f87803b158015610919575f80fd5b505af115801561092b573d5f803e3d5ffd5b5050505086886001600160a01b03167fda87ba82c20701b6408a3d08484f0e5ece08f4d8400b15716a197e6e0c23c261885f0151338a6020015160405161097493929190610cf1565b60405180910390a35050505050506103b860015f80516020610dd783398151915255565b6109a0610bfe565b5f81116109df5760405162461bcd60e51b815260206004820152600d60248201526c4d61726b65743a20707269636560981b60448201526064016102d9565b6040516323b872dd60e01b815283906001600160a01b038216906323b872dd90610a1190339030908890600401610cf1565b5f604051808303815f87803b158015610a28575f80fd5b505af1158015610a3a573d5f803e3d5ffd5b50506040805180820182523380825260208083018881526001600160a01b038b81165f81815260018086528882208e8352865290889020965187546001600160a01b03191693169290921786559151940193909355925187815290945087935090917f8b06cda60618abf2b2d07227f9dd63ec6349ca3269ce0eb18d49122a48362ad8910160405180910390a450610ade60015f80516020610dd783398151915255565b505050565b610aeb610b83565b6002546040516001600160a01b038084169216907faaebcf1bfa00580e41d966056b48521fa9f202645c86d4ddf28113e617c1b1d3905f90a3600280546001600160a01b0319166001600160a01b0392909216919091179055565b610b4e610b83565b6001600160a01b038116610b7757604051631e4fbdf760e01b81525f60048201526024016102d9565b610b8081610baf565b50565b5f546001600160a01b031633146102525760405163118cdaa760e01b81523360048201526024016102d9565b5f80546001600160a01b038381166001600160a01b0319831681178455604051919092169283917f8be0079c531659141344cd1fd0a4f28419497f9722a3daafe3b4186f6b6457e09190a35050565b610c06610c19565b60025f80516020610dd783398151915255565b5f80516020610dd78339815191525460020361025257604051633ee5aeb560e01b815260040160405180910390fd5b6001600160a01b0381168114610b80575f80fd5b5f8060408385031215610c6d575f80fd5b8235610c7881610c48565b946020939093013593505050565b5f60208284031215610c96575f80fd5b5035919050565b5f805f60608486031215610caf575f80fd5b8335610cba81610c48565b95602085013595506040909401359392505050565b5f60208284031215610cdf575f80fd5b8135610cea81610c48565b9392505050565b6001600160a01b039384168152919092166020820152604081019190915260600190565b5f60208284031215610d25575f80fd5b81518015158114610cea575f80fd5b5f8060408385031215610d45575f80fd5b8251610d5081610c48565b6020939093015192949293505050565b634e487b7160e01b5f52601160045260245ffd5b8082028115828204841417610d8b57610d8b610d60565b92915050565b5f82610dab57634e487b7160e01b5f52601260045260245ffd5b500490565b81810381811115610d8b57610d8b610d60565b80820180821115610d8b57610d8b610d6056fe9b779b17422d0df92223018b32b4d1fa46e071723d6817e2486d003becc55f00a2646970667358221220418d56e742a396683e93cf73a6539381370eeca588b55cc8e4bfe0c1d18866b764736f6c63430008180033","linkReferences":{}},"methodIdentifiers":{"buy(address,uint256)":"cce7ec13","cancel(address,uint256)":"98590ef9","feeRecipient()":"46904840","list(address,uint256,uint256)":"dda342bb","listings(address,uint256)":"0007df30","owner()":"8da5cb5b","platformFeeBps()":"22dcd13e","renounceOwnership()":"715018a6","setFeeRecipient(address)":"e74b981b","setPlatformFeeBps(uint256)":"c580c942","transferOwnership(address)":"f2fde38b"},"id":91}