{"abi":[{"type":"constructor","inputs":[{"name":"initialOwner","type":"address","internalType":"address"},{"name":"name_","type":"string","internalType":"string"},{"name":"symbol_","type":"string","internalType":"string"},{"name":"cap_","type":"uint256","internalType":"uint256"}],"stateMutability":"nonpayable"},{"type":"function","name":"DOMAIN_SEPARATOR","inputs":[],"outputs":[{"name":"","type":"bytes32","internalType":"bytes32"}],"stateMutability":"view"},{"type":"function","name":"allowance","inputs":[{"name":"owner","type":"address","internalType":"address"},{"name":"spender","type":"address","internalType":"address"}],"outputs":[{"name":"","type":"uint256","internalType":"uint256"}],"stateMutability":"view"},{"type":"function","name":"approve","inputs":[{"name":"spender","type":"address","internalType":"address"},{"name":"value","type":"uint256","internalType":"uint256"}],"outputs":[{"name":"","type":"bool","internalType":"bool"}],"stateMutability":"nonpayable"},{"type":"function","name":"balanceOf","inputs":[{"name":"account","type":"address","internalType":"address"}],"outputs":[{"name":"","type":"uint256","internalType":"uint256"}],"stateMutability":"view"},{"type":"function","name":"cap","inputs":[],"outputs":[{"name":"","type":"uint256","internalType":"uint256"}],"stateMutability":"view"},{"type":"function","name":"decimals","inputs":[],"outputs":[{"name":"","type":"uint8","internalType":"uint8"}],"stateMutability":"view"},{"type":"function","name":"eip712Domain","inputs":[],"outputs":[{"name":"fields","type":"bytes1","internalType":"bytes1"},{"name":"name","type":"string","internalType":"string"},{"name":"version","type":"string","internalType":"string"},{"name":"chainId","type":"uint256","internalType":"uint256"},{"name":"verifyingContract","type":"address","internalType":"address"},{"name":"salt","type":"bytes32","internalType":"bytes32"},{"name":"extensions","type":"uint256[]","internalType":"uint256[]"}],"stateMutability":"view"},{"type":"function","name":"mint","inputs":[{"name":"to","type":"address","internalType":"address"},{"name":"amount","type":"uint256","internalType":"uint256"}],"outputs":[],"stateMutability":"nonpayable"},{"type":"function","name":"name","inputs":[],"outputs":[{"name":"","type":"string","internalType":"string"}],"stateMutability":"view"},{"type":"function","name":"nonces","inputs":[{"name":"owner","type":"address","internalType":"address"}],"outputs":[{"name":"","type":"uint256","internalType":"uint256"}],"stateMutability":"view"},{"type":"function","name":"owner","inputs":[],"outputs":[{"name":"","type":"address","internalType":"address"}],"stateMutability":"view"},{"type":"function","name":"permit","inputs":[{"name":"owner","type":"address","internalType":"address"},{"name":"spender","type":"address","internalType":"address"},{"name":"value","type":"uint256","internalType":"uint256"},{"name":"deadline","type":"uint256","internalType":"uint256"},{"name":"v","type":"uint8","internalType":"uint8"},{"name":"r","type":"bytes32","internalType":"bytes32"},{"name":"s","type":"bytes32","internalType":"bytes32"}],"outputs":[],"stateMutability":"nonpayable"},{"type":"function","name":"renounceOwnership","inputs":[],"outputs":[],"stateMutability":"nonpayable"},{"type":"function","name":"symbol","inputs":[],"outputs":[{"name":"","type":"string","internalType":"string"}],"stateMutability":"view"},{"type":"function","name":"totalSupply","inputs":[],"outputs":[{"name":"","type":"uint256","internalType":"uint256"}],"stateMutability":"view"},{"type":"function","name":"transfer","inputs":[{"name":"to","type":"address","internalType":"address"},{"name":"value","type":"uint256","internalType":"uint256"}],"outputs":[{"name":"","type":"bool","internalType":"bool"}],"stateMutability":"nonpayable"},{"type":"function","name":"transferFrom","inputs":[{"name":"from","type":"address","internalType":"address"},{"name":"to","type":"address","internalType":"address"},{"name":"value","type":"uint256","internalType":"uint256"}],"outputs":[{"name":"","type":"bool","internalType":"bool"}],"stateMutability":"nonpayable"},{"type":"function","name":"transferOwnership","inputs":[{"name":"newOwner","type":"address","internalType":"address"}],"outputs":[],"stateMutability":"nonpayable"},{"type":"event","name":"Approval","inputs":[{"name":"owner","type":"address","indexed":true,"internalType":"address"},{"name":"spender","type":"address","indexed":true,"internalType":"address"},{"name":"value","type":"uint256","indexed":false,"internalType":"uint256"}],"anonymous":false},{"type":"event","name":"EIP712DomainChanged","inputs":[],"anonymous":false},{"type":"event","name":"OwnershipTransferred","inputs":[{"name":"previousOwner","type":"address","indexed":true,"internalType":"address"},{"name":"newOwner","type":"address","indexed":true,"internalType":"address"}],"anonymous":false},{"type":"event","name":"Transfer","inputs":[{"name":"from","type":"address","indexed":true,"internalType":"address"},{"name":"to","type":"address","indexed":true,"internalType":"address"},{"name":"value","type":"uint256","indexed":false,"internalType":"uint256"}],"anonymous":false},{"type":"error","name":"ECDSAInvalidSignature","inputs":[]},{"type":"error","name":"ECDSAInvalidSignatureLength","inputs":[{"name":"length","type":"uint256","internalType":"uint256"}]},{"type":"error","name":"ECDSAInvalidSignatureS","inputs":[{"name":"s","type":"bytes32","internalType":"bytes32"}]},{"type":"error","name":"ERC20InsufficientAllowance","inputs":[{"name":"spender","type":"address","internalType":"address"},{"name":"allowance","type":"uint256","internalType":"uint256"},{"name":"needed","type":"uint256","internalType":"uint256"}]},{"type":"error","name":"ERC20InsufficientBalance","inputs":[{"name":"sender","type":"address","internalType":"address"},{"name":"balance","type":"uint256","internalType":"uint256"},{"name":"needed","type":"uint256","internalType":"uint256"}]},{"type":"error","name":"ERC20InvalidApprover","inputs":[{"name":"approver","type":"address","internalType":"address"}]},{"type":"error","name":"ERC20InvalidReceiver","inputs":[{"name":"receiver","type":"address","internalType":"address"}]},{"type":"error","name":"ERC20InvalidSender","inputs":[{"name":"sender","type":"address","internalType":"address"}]},{"type":"error","name":"ERC20InvalidSpender","inputs":[{"name":"spender","type":"address","internalType":"address"}]},{"type":"error","name":"ERC2612ExpiredSignature","inputs":[{"name":"deadline","type":"uint256","internalType":"uint256"}]},{"type":"error","name":"ERC2612InvalidSigner","inputs":[{"name":"signer","type":"address","internalType":"address"},{"name":"owner","type":"address","internalType":"address"}]},{"type":"error","name":"GemsPlatformTokenCapExceeded","inputs":[{"name":"cap","type":"uint256","internalType":"uint256"},{"name":"requestedTotal","type":"uint256","internalType":"uint256"}]},{"type":"error","name":"InvalidAccountNonce","inputs":[{"name":"account","type":"address","internalType":"address"},{"name":"currentNonce","type":"uint256","internalType":"uint256"}]},{"type":"error","name":"InvalidShortString","inputs":[]},{"type":"error","name":"OwnableInvalidOwner","inputs":[{"name":"owner","type":"address","internalType":"address"}]},{"type":"error","name":"OwnableUnauthorizedAccount","inputs":[{"name":"account","type":"address","internalType":"address"}]},{"type":"error","name":"StringTooLong","inputs":[{"name":"str","type":"string","internalType":"string"}]}],"bytecode":{"object":"0x61018060405234801562000011575f80fd5b50604051620016f4380380620016f4833981016040819052620000349162000344565b838380604051806040016040528060018152602001603160f81b815250868681600390816200006491906200045a565b5060046200007382826200045a565b506200008591508390506005620001b3565b6101205262000096816006620001b3565b61014052815160208084019190912060e052815190820120610100524660a0526200012360e05161010051604080517f8b73c3c69bb8fe3d512ecc4cf759cc79239f7b179b0ffacaa9a75d522b39400f60208201529081019290925260608201524660808201523060a08201525f9060c00160405160208183030381529060405280519060200120905090565b60805250503060c052506001600160a01b0381166200015c57604051631e4fbdf760e01b81525f60048201526024015b60405180910390fd5b6200016781620001eb565b505f8111620001a55760405162461bcd60e51b8152602060048201526009602482015268047454d533a206361760bc1b604482015260640162000153565b61016052506200057e915050565b5f602083511015620001d257620001ca836200023c565b9050620001e5565b81620001df84826200045a565b5060ff90505b92915050565b600880546001600160a01b038381166001600160a01b0319831681179093556040519116919082907f8be0079c531659141344cd1fd0a4f28419497f9722a3daafe3b4186f6b6457e0905f90a35050565b5f80829050601f8151111562000269578260405163305a27a960e01b815260040162000153919062000526565b805162000276826200055a565b179392505050565b634e487b7160e01b5f52604160045260245ffd5b5f5b83811015620002ae57818101518382015260200162000294565b50505f910152565b5f82601f830112620002c6575f80fd5b81516001600160401b0380821115620002e357620002e36200027e565b604051601f8301601f19908116603f011681019082821181831017156200030e576200030e6200027e565b8160405283815286602085880101111562000327575f80fd5b6200033a84602083016020890162000292565b9695505050505050565b5f805f806080858703121562000358575f80fd5b84516001600160a01b03811681146200036f575f80fd5b60208601519094506001600160401b03808211156200038c575f80fd5b6200039a88838901620002b6565b94506040870151915080821115620003b0575f80fd5b50620003bf87828801620002b6565b606096909601519497939650505050565b600181811c90821680620003e557607f821691505b6020821081036200040457634e487b7160e01b5f52602260045260245ffd5b50919050565b601f8211156200045557805f5260205f20601f840160051c81016020851015620004315750805b601f840160051c820191505b8181101562000452575f81556001016200043d565b50505b505050565b81516001600160401b038111156200047657620004766200027e565b6200048e81620004878454620003d0565b846200040a565b602080601f831160018114620004c4575f8415620004ac5750858301515b5f19600386901b1c1916600185901b1785556200051e565b5f85815260208120601f198616915b82811015620004f457888601518255948401946001909101908401620004d3565b50858210156200051257878501515f19600388901b60f8161c191681555b505060018460011b0185555b505050505050565b602081525f82518060208401526200054681604085016020870162000292565b601f01601f19169190910160400192915050565b8051602080830151919081101562000404575f1960209190910360031b1b16919050565b60805160a05160c05160e0516101005161012051610140516101605161110c620005e85f395f818161018f015281816103a401526103df01525f61094201525f61091501525f61080c01525f6107e401525f61073f01525f61076901525f610793015261110c5ff3fe608060405234801561000f575f80fd5b5060043610610111575f3560e01c8063715018a61161009e57806395d89b411161006e57806395d89b4114610247578063a9059cbb1461024f578063d505accf14610262578063dd62ed3e14610275578063f2fde38b146102ad575f80fd5b8063715018a6146101f65780637ecebe00146101fe57806384b0196e146102115780638da5cb5b1461022c575f80fd5b8063313ce567116100e4578063313ce5671461017b578063355274ea1461018a5780633644e515146101b157806340c10f19146101b957806370a08231146101ce575f80fd5b806306fdde0314610115578063095ea7b31461013357806318160ddd1461015657806323b872dd14610168575b5f80fd5b61011d6102c0565b60405161012a9190610e88565b60405180910390f35b610146610141366004610ebc565b610350565b604051901515815260200161012a565b6002545b60405190815260200161012a565b610146610176366004610ee4565b610369565b6040516012815260200161012a565b61015a7f000000000000000000000000000000000000000000000000000000000000000081565b61015a61038c565b6101cc6101c7366004610ebc565b61039a565b005b61015a6101dc366004610f1d565b6001600160a01b03165f9081526020819052604090205490565b6101cc610447565b61015a61020c366004610f1d565b61045a565b610219610477565b60405161012a9796959493929190610f36565b6008546040516001600160a01b03909116815260200161012a565b61011d6104b9565b61014661025d366004610ebc565b6104c8565b6101cc610270366004610fcd565b6104d5565b61015a61028336600461103a565b6001600160a01b039182165f90815260016020908152604080832093909416825291909152205490565b6101cc6102bb366004610f1d565b61060b565b6060600380546102cf9061106b565b80601f01602080910402602001604051908101604052809291908181526020018280546102fb9061106b565b80156103465780601f1061031d57610100808354040283529160200191610346565b820191905f5260205f20905b81548152906001019060200180831161032957829003601f168201915b5050505050905090565b5f3361035d818585610648565b60019150505b92915050565b5f3361037685828561065a565b6103818585856106d6565b506001949350505050565b5f610395610733565b905090565b6103a261085c565b7f0000000000000000000000000000000000000000000000000000000000000000816103cd60025490565b6103d791906110a3565b1115610439577f00000000000000000000000000000000000000000000000000000000000000008161040860025490565b61041291906110a3565b60405163d5673b0760e01b8152600481019290925260248201526044015b60405180910390fd5b6104438282610889565b5050565b61044f61085c565b6104585f6108bd565b565b6001600160a01b0381165f90815260076020526040812054610363565b5f6060805f805f606061048861090e565b61049061093b565b604080515f80825260208201909252600f60f81b9b939a50919850469750309650945092509050565b6060600480546102cf9061106b565b5f3361035d8185856106d6565b834211156104f95760405163313c898160e11b815260048101859052602401610430565b5f7f6e71edae12b1b97f4d1f60370fef10105fa2faae0126114a169c64845d6126c98888886105448c6001600160a01b03165f90815260076020526040902080546001810190915590565b6040805160208101969096526001600160a01b0394851690860152929091166060840152608083015260a082015260c0810186905260e0016040516020818303038152906040528051906020012090505f61059e82610968565b90505f6105ad82878787610994565b9050896001600160a01b0316816001600160a01b0316146105f4576040516325c0072360e11b81526001600160a01b0380831660048301528b166024820152604401610430565b6105ff8a8a8a610648565b50505050505050505050565b61061361085c565b6001600160a01b03811661063c57604051631e4fbdf760e01b81525f6004820152602401610430565b610645816108bd565b50565b61065583838360016109c0565b505050565b6001600160a01b038381165f908152600160209081526040808320938616835292905220545f198110156106d057818110156106c257604051637dc7a0d960e11b81526001600160a01b03841660048201526024810182905260448101839052606401610430565b6106d084848484035f6109c0565b50505050565b6001600160a01b0383166106ff57604051634b637e8f60e11b81525f6004820152602401610430565b6001600160a01b0382166107285760405163ec442f0560e01b81525f6004820152602401610430565b610655838383610a92565b5f306001600160a01b037f00000000000000000000000000000000000000000000000000000000000000001614801561078b57507f000000000000000000000000000000000000000000000000000000000000000046145b156107b557507f000000000000000000000000000000000000000000000000000000000000000090565b610395604080517f8b73c3c69bb8fe3d512ecc4cf759cc79239f7b179b0ffacaa9a75d522b39400f60208201527f0000000000000000000000000000000000000000000000000000000000000000918101919091527f000000000000000000000000000000000000000000000000000000000000000060608201524660808201523060a08201525f9060c00160405160208183030381529060405280519060200120905090565b6008546001600160a01b031633146104585760405163118cdaa760e01b8152336004820152602401610430565b6001600160a01b0382166108b25760405163ec442f0560e01b81525f6004820152602401610430565b6104435f8383610a92565b600880546001600160a01b038381166001600160a01b0319831681179093556040519116919082907f8be0079c531659141344cd1fd0a4f28419497f9722a3daafe3b4186f6b6457e0905f90a35050565b60606103957f00000000000000000000000000000000000000000000000000000000000000006005610bb8565b60606103957f00000000000000000000000000000000000000000000000000000000000000006006610bb8565b5f610363610974610733565b8360405161190160f01b8152600281019290925260228201526042902090565b5f805f806109a488888888610c61565b9250925092506109b48282610d29565b50909695505050505050565b6001600160a01b0384166109e95760405163e602df0560e01b81525f6004820152602401610430565b6001600160a01b038316610a1257604051634a1406b160e11b81525f6004820152602401610430565b6001600160a01b038085165f90815260016020908152604080832093871683529290522082905580156106d057826001600160a01b0316846001600160a01b03167f8c5be1e5ebec7d5bd14f71427d1e84f3dd0314c0f7b2291e5b200ac8c7c3b92584604051610a8491815260200190565b60405180910390a350505050565b6001600160a01b038316610abc578060025f828254610ab191906110a3565b90915550610b2c9050565b6001600160a01b0383165f9081526020819052604090205481811015610b0e5760405163391434e360e21b81526001600160a01b03851660048201526024810182905260448101839052606401610430565b6001600160a01b0384165f9081526020819052604090209082900390555b6001600160a01b038216610b4857600280548290039055610b66565b6001600160a01b0382165f9081526020819052604090208054820190555b816001600160a01b0316836001600160a01b03167fddf252ad1be2c89b69c2b068fc378daa952ba7f163c4a11628f55a4df523b3ef83604051610bab91815260200190565b60405180910390a3505050565b606060ff8314610bd257610bcb83610de1565b9050610363565b818054610bde9061106b565b80601f0160208091040260200160405190810160405280929190818152602001828054610c0a9061106b565b8015610c555780601f10610c2c57610100808354040283529160200191610c55565b820191905f5260205f20905b815481529060010190602001808311610c3857829003601f168201915b50505050509050610363565b5f80807f7fffffffffffffffffffffffffffffff5d576e7357a4501ddfe92f46681b20a0841115610c9a57505f91506003905082610d1f565b604080515f808252602082018084528a905260ff891692820192909252606081018790526080810186905260019060a0016020604051602081039080840390855afa158015610ceb573d5f803e3d5ffd5b5050604051601f1901519150506001600160a01b038116610d1657505f925060019150829050610d1f565b92505f91508190505b9450945094915050565b5f826003811115610d3c57610d3c6110c2565b03610d45575050565b6001826003811115610d5957610d596110c2565b03610d775760405163f645eedf60e01b815260040160405180910390fd5b6002826003811115610d8b57610d8b6110c2565b03610dac5760405163fce698f760e01b815260048101829052602401610430565b6003826003811115610dc057610dc06110c2565b03610443576040516335e2f38360e21b815260048101829052602401610430565b60605f610ded83610e1e565b6040805160208082528183019092529192505f91906020820181803683375050509182525060208101929092525090565b5f60ff8216601f81111561036357604051632cd44ac360e21b815260040160405180910390fd5b5f81518084525f5b81811015610e6957602081850181015186830182015201610e4d565b505f602082860101526020601f19601f83011685010191505092915050565b602081525f610e9a6020830184610e45565b9392505050565b80356001600160a01b0381168114610eb7575f80fd5b919050565b5f8060408385031215610ecd575f80fd5b610ed683610ea1565b946020939093013593505050565b5f805f60608486031215610ef6575f80fd5b610eff84610ea1565b9250610f0d60208501610ea1565b9150604084013590509250925092565b5f60208284031215610f2d575f80fd5b610e9a82610ea1565b60ff60f81b881681525f602060e06020840152610f5660e084018a610e45565b8381036040850152610f68818a610e45565b606085018990526001600160a01b038816608086015260a0850187905284810360c0860152855180825260208088019350909101905f5b81811015610fbb57835183529284019291840191600101610f9f565b50909c9b505050505050505050505050565b5f805f805f805f60e0888a031215610fe3575f80fd5b610fec88610ea1565b9650610ffa60208901610ea1565b95506040880135945060608801359350608088013560ff8116811461101d575f80fd5b9699959850939692959460a0840135945060c09093013592915050565b5f806040838503121561104b575f80fd5b61105483610ea1565b915061106260208401610ea1565b90509250929050565b600181811c9082168061107f57607f821691505b60208210810361109d57634e487b7160e01b5f52602260045260245ffd5b50919050565b8082018082111561036357634e487b7160e01b5f52601160045260245ffd5b634e487b7160e01b5f52602160045260245ffdfea264697066735822122070def71ab4154d14d7de7ffa6db03c1605e2ad531234b0856f181de9ea552ae864736f6c63430008180033","linkReferences":{}},"methodIdentifiers":{"DOMAIN_SEPARATOR()":"3644e515","allowance(address,address)":"dd62ed3e","approve(address,uint256)":"095ea7b3","balanceOf(address)":"70a08231","cap()":"355274ea","decimals()":"313ce567","eip712Domain()":"84b0196e","mint(address,uint256)":"40c10f19","name()":"06fdde03","nonces(address)":"7ecebe00","owner()":"8da5cb5b","permit(address,address,uint256,uint256,uint8,bytes32,bytes32)":"d505accf","renounceOwnership()":"715018a6","symbol()":"95d89b41","totalSupply()":"18160ddd","transfer(address,uint256)":"a9059cbb","transferFrom(address,address,uint256)":"23b872dd","transferOwnership(address)":"f2fde38b"},"id":92}