{"abi":[{"type":"constructor","inputs":[{"name":"initialOwner","type":"address","internalType":"address"},{"name":"stakingToken_","type":"address","internalType":"address"},{"name":"rewardsToken_","type":"address","internalType":"address"}],"stateMutability":"nonpayable"},{"type":"function","name":"balanceOf","inputs":[{"name":"account","type":"address","internalType":"address"}],"outputs":[{"name":"","type":"uint256","internalType":"uint256"}],"stateMutability":"view"},{"type":"function","name":"earned","inputs":[{"name":"account","type":"address","internalType":"address"}],"outputs":[{"name":"","type":"uint256","internalType":"uint256"}],"stateMutability":"view"},{"type":"function","name":"exit","inputs":[],"outputs":[],"stateMutability":"nonpayable"},{"type":"function","name":"getReward","inputs":[],"outputs":[],"stateMutability":"nonpayable"},{"type":"function","name":"lastTimeRewardApplicable","inputs":[],"outputs":[{"name":"","type":"uint256","internalType":"uint256"}],"stateMutability":"view"},{"type":"function","name":"lastUpdateTime","inputs":[],"outputs":[{"name":"","type":"uint256","internalType":"uint256"}],"stateMutability":"view"},{"type":"function","name":"notifyRewardAmount","inputs":[{"name":"reward","type":"uint256","internalType":"uint256"}],"outputs":[],"stateMutability":"nonpayable"},{"type":"function","name":"owner","inputs":[],"outputs":[{"name":"","type":"address","internalType":"address"}],"stateMutability":"view"},{"type":"function","name":"periodFinish","inputs":[],"outputs":[{"name":"","type":"uint256","internalType":"uint256"}],"stateMutability":"view"},{"type":"function","name":"renounceOwnership","inputs":[],"outputs":[],"stateMutability":"nonpayable"},{"type":"function","name":"rewardPerToken","inputs":[],"outputs":[{"name":"","type":"uint256","internalType":"uint256"}],"stateMutability":"view"},{"type":"function","name":"rewardPerTokenStored","inputs":[],"outputs":[{"name":"","type":"uint256","internalType":"uint256"}],"stateMutability":"view"},{"type":"function","name":"rewardRate","inputs":[],"outputs":[{"name":"","type":"uint256","internalType":"uint256"}],"stateMutability":"view"},{"type":"function","name":"rewards","inputs":[{"name":"","type":"address","internalType":"address"}],"outputs":[{"name":"","type":"uint256","internalType":"uint256"}],"stateMutability":"view"},{"type":"function","name":"rewardsDuration","inputs":[],"outputs":[{"name":"","type":"uint256","internalType":"uint256"}],"stateMutability":"view"},{"type":"function","name":"rewardsToken","inputs":[],"outputs":[{"name":"","type":"address","internalType":"contract IERC20"}],"stateMutability":"view"},{"type":"function","name":"setRewardsDuration","inputs":[{"name":"newDuration","type":"uint256","internalType":"uint256"}],"outputs":[],"stateMutability":"nonpayable"},{"type":"function","name":"stake","inputs":[{"name":"amount","type":"uint256","internalType":"uint256"}],"outputs":[],"stateMutability":"nonpayable"},{"type":"function","name":"stakingToken","inputs":[],"outputs":[{"name":"","type":"address","internalType":"contract IERC20"}],"stateMutability":"view"},{"type":"function","name":"totalSupply","inputs":[],"outputs":[{"name":"","type":"uint256","internalType":"uint256"}],"stateMutability":"view"},{"type":"function","name":"transferOwnership","inputs":[{"name":"newOwner","type":"address","internalType":"address"}],"outputs":[],"stateMutability":"nonpayable"},{"type":"function","name":"userRewardPerTokenPaid","inputs":[{"name":"","type":"address","internalType":"address"}],"outputs":[{"name":"","type":"uint256","internalType":"uint256"}],"stateMutability":"view"},{"type":"function","name":"withdraw","inputs":[{"name":"amount","type":"uint256","internalType":"uint256"}],"outputs":[],"stateMutability":"nonpayable"},{"type":"event","name":"OwnershipTransferred","inputs":[{"name":"previousOwner","type":"address","indexed":true,"internalType":"address"},{"name":"newOwner","type":"address","indexed":true,"internalType":"address"}],"anonymous":false},{"type":"event","name":"RewardAdded","inputs":[{"name":"reward","type":"uint256","indexed":false,"internalType":"uint256"},{"name":"duration","type":"uint256","indexed":false,"internalType":"uint256"}],"anonymous":false},{"type":"event","name":"RewardPaid","inputs":[{"name":"user","type":"address","indexed":true,"internalType":"address"},{"name":"reward","type":"uint256","indexed":false,"internalType":"uint256"}],"anonymous":false},{"type":"event","name":"Staked","inputs":[{"name":"user","type":"address","indexed":true,"internalType":"address"},{"name":"amount","type":"uint256","indexed":false,"internalType":"uint256"}],"anonymous":false},{"type":"event","name":"Withdrawn","inputs":[{"name":"user","type":"address","indexed":true,"internalType":"address"},{"name":"amount","type":"uint256","indexed":false,"internalType":"uint256"}],"anonymous":false},{"type":"error","name":"OwnableInvalidOwner","inputs":[{"name":"owner","type":"address","internalType":"address"}]},{"type":"error","name":"OwnableUnauthorizedAccount","inputs":[{"name":"account","type":"address","internalType":"address"}]},{"type":"error","name":"ReentrancyGuardReentrantCall","inputs":[]},{"type":"error","name":"SafeERC20FailedOperation","inputs":[{"name":"token","type":"address","internalType":"address"}]}],"bytecode":{"object":"0x60c060405262093a80600355348015610016575f80fd5b50604051620011113803806200111183398101604081905261003791610115565b826001600160a01b03811661006557604051631e4fbdf760e01b81525f600482015260240160405180910390fd5b61006e816100ab565b5060017f9b779b17422d0df92223018b32b4d1fa46e071723d6817e2486d003becc55f00556001600160a01b039182166080521660a05250610155565b5f80546001600160a01b038381166001600160a01b0319831681178455604051919092169283917f8be0079c531659141344cd1fd0a4f28419497f9722a3daafe3b4186f6b6457e09190a35050565b80516001600160a01b0381168114610110575f80fd5b919050565b5f805f60608486031215610127575f80fd5b610130846100fa565b925061013e602085016100fa565b915061014c604085016100fa565b90509250925092565b60805160a051610f70620001a15f395f81816102bc015281816105bf015281816107660152610b9501525f818161020601528181610471015281816108f10152610b0b0152610f705ff3fe608060405234801561000f575f80fd5b5060043610610147575f3560e01c806380faa57d116100bf578063cd3daf9d11610079578063cd3daf9d146102af578063d1af0c7d146102b7578063df136d65146102de578063e9fad8ee146102e7578063ebe2b12b146102ef578063f2fde38b146102f8575f80fd5b806380faa57d146102495780638b876347146102515780638da5cb5b14610270578063a694fc3a14610280578063c8f33c9114610293578063cc1a378f1461029c575f80fd5b80633c6b16ab116101105780633c6b16ab146101b65780633d18b912146101c957806370a08231146101d1578063715018a6146101f957806372f702f3146102015780637b0a47ee14610240575f80fd5b80628cc2621461014b5780630700037d1461017157806318160ddd146101905780632e1a7d4d14610198578063386a9525146101ad575b5f80fd5b61015e610159366004610e4f565b61030b565b6040519081526020015b60405180910390f35b61015e61017f366004610e4f565b60076020525f908152604090205481565b60085461015e565b6101ab6101a6366004610e7c565b610386565b005b61015e60035481565b6101ab6101c4366004610e7c565b6104e8565b6101ab6106da565b61015e6101df366004610e4f565b6001600160a01b03165f9081526009602052604090205490565b6101ab6107e5565b6102287f000000000000000000000000000000000000000000000000000000000000000081565b6040516001600160a01b039091168152602001610168565b61015e60015481565b61015e6107f6565b61015e61025f366004610e4f565b60066020525f908152604090205481565b5f546001600160a01b0316610228565b6101ab61028e366004610e7c565b61080e565b61015e60045481565b6101ab6102aa366004610e7c565b61094b565b61015e6109d9565b6102287f000000000000000000000000000000000000000000000000000000000000000081565b61015e60055481565b6101ab610a38565b61015e60025481565b6101ab610306366004610e4f565b610c0b565b6001600160a01b0381165f908152600760209081526040808320546006909252822054670de0b6b3a7640000906103406109d9565b61034a9190610ea7565b6001600160a01b0385165f9081526009602052604090205461036c9190610eba565b6103769190610ed1565b6103809190610ef0565b92915050565b61038e610c45565b336103976109d9565b6005556103a26107f6565b6004556001600160a01b038116156103e8576103bd8161030b565b6001600160a01b0382165f908152600760209081526040808320939093556005546006909152919020555b5f821161042a5760405162461bcd60e51b815260206004820152600b60248201526a077697468647261773a20360ac1b60448201526064015b60405180910390fd5b8160085f82825461043b9190610ea7565b9091555050335f908152600960205260408120805484929061045e908490610ea7565b9091555061049890506001600160a01b037f0000000000000000000000000000000000000000000000000000000000000000163384610c60565b60405182815233907f7084f5476618d8e60b11ef0d7d3f06914655adb8793e28ff7f018d4c76d505d5906020015b60405180910390a2506104e560015f80516020610f1b83398151915255565b50565b6104f0610c9a565b5f6104f96109d9565b6005556105046107f6565b6004556001600160a01b0381161561054a5761051f8161030b565b6001600160a01b0382165f908152600760209081526040808320939093556005546006909152919020555b6002544210610568576003546105609083610ed1565b6001556105a8565b5f426002546105779190610ea7565b90505f600154826105889190610eba565b6003549091506105988286610ef0565b6105a29190610ed1565b60015550505b6040516370a0823160e01b81523060048201525f907f00000000000000000000000000000000000000000000000000000000000000006001600160a01b0316906370a0823190602401602060405180830381865afa15801561060c573d5f803e3d5ffd5b505050506040513d601f19601f820116820180604052508101906106309190610f03565b9050600354816106409190610ed1565b60015411156106835760405162461bcd60e51b815260206004820152600f60248201526e6e6f746966793a2062616c616e636560881b6044820152606401610421565b42600481905560035461069591610ef0565b6002556003546040805185815260208101929092527f6c07ee05dcf262f13abf9d87b846ee789d2f90fe991d495acd7d7fc109ee1f55910160405180910390a1505050565b6106e2610c45565b336106eb6109d9565b6005556106f66107f6565b6004556001600160a01b0381161561073c576107118161030b565b6001600160a01b0382165f908152600760209081526040808320939093556005546006909152919020555b335f9081526007602052604090205480156107cb57335f81815260076020526040812055610795907f00000000000000000000000000000000000000000000000000000000000000006001600160a01b03169083610c60565b60405181815233907fe2403640ba68fed3a2f88b7557551d1993f84b99bb10ff833f0cf8db0c5e04869060200160405180910390a25b50506107e360015f80516020610f1b83398151915255565b565b6107ed610c9a565b6107e35f610cc6565b5f6002544210610807575060025490565b425b905090565b610816610c45565b3361081f6109d9565b60055561082a6107f6565b6004556001600160a01b03811615610870576108458161030b565b6001600160a01b0382165f908152600760209081526040808320939093556005546006909152919020555b5f82116108aa5760405162461bcd60e51b815260206004820152600860248201526707374616b653a20360c41b6044820152606401610421565b8160085f8282546108bb9190610ef0565b9091555050335f90815260096020526040812080548492906108de908490610ef0565b9091555061091990506001600160a01b037f000000000000000000000000000000000000000000000000000000000000000016333085610d15565b60405182815233907f9e71bc8eea02a63969f509818f2dafb9254532904319f9dbda79b67bd34a5f3d906020016104c6565b610953610c9a565b60025442116109975760405162461bcd60e51b815260206004820152601060248201526f6475726174696f6e3a2061637469766560801b6044820152606401610421565b5f81116109d45760405162461bcd60e51b815260206004820152600b60248201526a06475726174696f6e3a20360ac1b6044820152606401610421565b600355565b5f6008545f036109ea575060055490565b6008546001546004546109fb6107f6565b610a059190610ea7565b610a0f9190610eba565b610a2190670de0b6b3a7640000610eba565b610a2b9190610ed1565b6005546108099190610ef0565b610a40610c45565b33610a496109d9565b600555610a546107f6565b6004556001600160a01b03811615610a9a57610a6f8161030b565b6001600160a01b0382165f908152600760209081526040808320939093556005546006909152919020555b335f9081526009602052604090205480610ae05760405162461bcd60e51b81526020600482015260076024820152660657869743a20360cc1b6044820152606401610421565b8060085f828254610af19190610ea7565b9091555050335f81815260096020526040812055610b3a907f00000000000000000000000000000000000000000000000000000000000000006001600160a01b03169083610c60565b60405181815233907f7084f5476618d8e60b11ef0d7d3f06914655adb8793e28ff7f018d4c76d505d59060200160405180910390a2335f90815260076020526040812080549190558015610bf257610bbc6001600160a01b037f0000000000000000000000000000000000000000000000000000000000000000163383610c60565b60405181815233907fe2403640ba68fed3a2f88b7557551d1993f84b99bb10ff833f0cf8db0c5e04869060200160405180910390a25b5050506107e360015f80516020610f1b83398151915255565b610c13610c9a565b6001600160a01b038116610c3c57604051631e4fbdf760e01b81525f6004820152602401610421565b6104e581610cc6565b610c4d610d51565b60025f80516020610f1b83398151915255565b610c6d8383836001610d80565b610c9557604051635274afe760e01b81526001600160a01b0384166004820152602401610421565b505050565b5f546001600160a01b031633146107e35760405163118cdaa760e01b8152336004820152602401610421565b5f80546001600160a01b038381166001600160a01b0319831681178455604051919092169283917f8be0079c531659141344cd1fd0a4f28419497f9722a3daafe3b4186f6b6457e09190a35050565b610d23848484846001610de2565b610d4b57604051635274afe760e01b81526001600160a01b0385166004820152602401610421565b50505050565b5f80516020610f1b833981519152546002036107e357604051633ee5aeb560e01b815260040160405180910390fd5b60405163a9059cbb60e01b5f8181526001600160a01b038616600452602485905291602083604481808b5af1925060015f51148316610dd6578383151615610dca573d5f823e3d81fd5b5f873b113d1516831692505b60405250949350505050565b6040516323b872dd60e01b5f8181526001600160a01b038781166004528616602452604485905291602083606481808c5af1925060015f51148316610e3e578383151615610e32573d5f823e3d81fd5b5f883b113d1516831692505b604052505f60605295945050505050565b5f60208284031215610e5f575f80fd5b81356001600160a01b0381168114610e75575f80fd5b9392505050565b5f60208284031215610e8c575f80fd5b5035919050565b634e487b7160e01b5f52601160045260245ffd5b8181038181111561038057610380610e93565b808202811582820484141761038057610380610e93565b5f82610eeb57634e487b7160e01b5f52601260045260245ffd5b500490565b8082018082111561038057610380610e93565b5f60208284031215610f13575f80fd5b505191905056fe9b779b17422d0df92223018b32b4d1fa46e071723d6817e2486d003becc55f00a26469706673582212202a3517312c234cd5f8003645a91ada1bd90afaeb8efdf9ef8d279f6f1458213864736f6c63430008180033","linkReferences":{}},"methodIdentifiers":{"balanceOf(address)":"70a08231","earned(address)":"008cc262","exit()":"e9fad8ee","getReward()":"3d18b912","lastTimeRewardApplicable()":"80faa57d","lastUpdateTime()":"c8f33c91","notifyRewardAmount(uint256)":"3c6b16ab","owner()":"8da5cb5b","periodFinish()":"ebe2b12b","renounceOwnership()":"715018a6","rewardPerToken()":"cd3daf9d","rewardPerTokenStored()":"df136d65","rewardRate()":"7b0a47ee","rewards(address)":"0700037d","rewardsDuration()":"386a9525","rewardsToken()":"d1af0c7d","setRewardsDuration(uint256)":"cc1a378f","stake(uint256)":"a694fc3a","stakingToken()":"72f702f3","totalSupply()":"18160ddd","transferOwnership(address)":"f2fde38b","userRewardPerTokenPaid(address)":"8b876347","withdraw(uint256)":"2e1a7d4d"},"id":93}