{"abi":[{"type":"constructor","inputs":[{"name":"initialOwner","type":"address","internalType":"address"},{"name":"stakingNFT_","type":"address","internalType":"address"},{"name":"rewardsToken_","type":"address","internalType":"address"}],"stateMutability":"nonpayable"},{"type":"function","name":"earned","inputs":[{"name":"account","type":"address","internalType":"address"}],"outputs":[{"name":"","type":"uint256","internalType":"uint256"}],"stateMutability":"view"},{"type":"function","name":"getReward","inputs":[],"outputs":[],"stateMutability":"nonpayable"},{"type":"function","name":"lastTimeRewardApplicable","inputs":[],"outputs":[{"name":"","type":"uint256","internalType":"uint256"}],"stateMutability":"view"},{"type":"function","name":"lastUpdateTime","inputs":[],"outputs":[{"name":"","type":"uint256","internalType":"uint256"}],"stateMutability":"view"},{"type":"function","name":"notifyRewardAmount","inputs":[{"name":"reward","type":"uint256","internalType":"uint256"}],"outputs":[],"stateMutability":"nonpayable"},{"type":"function","name":"onERC721Received","inputs":[{"name":"","type":"address","internalType":"address"},{"name":"from","type":"address","internalType":"address"},{"name":"tokenId","type":"uint256","internalType":"uint256"},{"name":"","type":"bytes","internalType":"bytes"}],"outputs":[{"name":"","type":"bytes4","internalType":"bytes4"}],"stateMutability":"nonpayable"},{"type":"function","name":"owner","inputs":[],"outputs":[{"name":"","type":"address","internalType":"address"}],"stateMutability":"view"},{"type":"function","name":"periodFinish","inputs":[],"outputs":[{"name":"","type":"uint256","internalType":"uint256"}],"stateMutability":"view"},{"type":"function","name":"renounceOwnership","inputs":[],"outputs":[],"stateMutability":"nonpayable"},{"type":"function","name":"rewardPerShare","inputs":[],"outputs":[{"name":"","type":"uint256","internalType":"uint256"}],"stateMutability":"view"},{"type":"function","name":"rewardPerShareStored","inputs":[],"outputs":[{"name":"","type":"uint256","internalType":"uint256"}],"stateMutability":"view"},{"type":"function","name":"rewardRate","inputs":[],"outputs":[{"name":"","type":"uint256","internalType":"uint256"}],"stateMutability":"view"},{"type":"function","name":"rewards","inputs":[{"name":"","type":"address","internalType":"address"}],"outputs":[{"name":"","type":"uint256","internalType":"uint256"}],"stateMutability":"view"},{"type":"function","name":"rewardsDuration","inputs":[],"outputs":[{"name":"","type":"uint256","internalType":"uint256"}],"stateMutability":"view"},{"type":"function","name":"rewardsToken","inputs":[],"outputs":[{"name":"","type":"address","internalType":"contract IERC20"}],"stateMutability":"view"},{"type":"function","name":"setRewardsDuration","inputs":[{"name":"newDuration","type":"uint256","internalType":"uint256"}],"outputs":[],"stateMutability":"nonpayable"},{"type":"function","name":"stake","inputs":[{"name":"tokenId","type":"uint256","internalType":"uint256"}],"outputs":[],"stateMutability":"nonpayable"},{"type":"function","name":"stakedBalance","inputs":[{"name":"","type":"address","internalType":"address"}],"outputs":[{"name":"","type":"uint256","internalType":"uint256"}],"stateMutability":"view"},{"type":"function","name":"stakedOwner","inputs":[{"name":"","type":"uint256","internalType":"uint256"}],"outputs":[{"name":"","type":"address","internalType":"address"}],"stateMutability":"view"},{"type":"function","name":"stakingNFT","inputs":[],"outputs":[{"name":"","type":"address","internalType":"contract IERC721"}],"stateMutability":"view"},{"type":"function","name":"totalStaked","inputs":[],"outputs":[{"name":"","type":"uint256","internalType":"uint256"}],"stateMutability":"view"},{"type":"function","name":"transferOwnership","inputs":[{"name":"newOwner","type":"address","internalType":"address"}],"outputs":[],"stateMutability":"nonpayable"},{"type":"function","name":"unstake","inputs":[{"name":"tokenId","type":"uint256","internalType":"uint256"}],"outputs":[],"stateMutability":"nonpayable"},{"type":"function","name":"userRewardPerSharePaid","inputs":[{"name":"","type":"address","internalType":"address"}],"outputs":[{"name":"","type":"uint256","internalType":"uint256"}],"stateMutability":"view"},{"type":"event","name":"OwnershipTransferred","inputs":[{"name":"previousOwner","type":"address","indexed":true,"internalType":"address"},{"name":"newOwner","type":"address","indexed":true,"internalType":"address"}],"anonymous":false},{"type":"event","name":"RewardAdded","inputs":[{"name":"reward","type":"uint256","indexed":false,"internalType":"uint256"},{"name":"duration","type":"uint256","indexed":false,"internalType":"uint256"}],"anonymous":false},{"type":"event","name":"RewardPaid","inputs":[{"name":"user","type":"address","indexed":true,"internalType":"address"},{"name":"reward","type":"uint256","indexed":false,"internalType":"uint256"}],"anonymous":false},{"type":"event","name":"Staked","inputs":[{"name":"user","type":"address","indexed":true,"internalType":"address"},{"name":"tokenId","type":"uint256","indexed":true,"internalType":"uint256"}],"anonymous":false},{"type":"event","name":"Unstaked","inputs":[{"name":"user","type":"address","indexed":true,"internalType":"address"},{"name":"tokenId","type":"uint256","indexed":true,"internalType":"uint256"}],"anonymous":false},{"type":"error","name":"OwnableInvalidOwner","inputs":[{"name":"owner","type":"address","internalType":"address"}]},{"type":"error","name":"OwnableUnauthorizedAccount","inputs":[{"name":"account","type":"address","internalType":"address"}]},{"type":"error","name":"ReentrancyGuardReentrantCall","inputs":[]},{"type":"error","name":"SafeERC20FailedOperation","inputs":[{"name":"token","type":"address","internalType":"address"}]}],"bytecode":{"object":"0x60c060405262093a80600355348015610016575f80fd5b5060405161106a38038061106a83398101604081905261003591610113565b826001600160a01b03811661006357604051631e4fbdf760e01b81525f600482015260240160405180910390fd5b61006c816100a9565b5060017f9b779b17422d0df92223018b32b4d1fa46e071723d6817e2486d003becc55f00556001600160a01b039182166080521660a05250610153565b5f80546001600160a01b038381166001600160a01b0319831681178455604051919092169283917f8be0079c531659141344cd1fd0a4f28419497f9722a3daafe3b4186f6b6457e09190a35050565b80516001600160a01b038116811461010e575f80fd5b919050565b5f805f60608486031215610125575f80fd5b61012e846100f8565b925061013c602085016100f8565b915061014a604085016100f8565b90509250925092565b60805160a051610ed36101975f395f818161031b0152818161076401526108b901525f81816101a9015281816103e80152818161063a01526109ec0152610ed35ff3fe608060405234801561000f575f80fd5b5060043610610152575f3560e01c8063715018a6116100bf578063a694fc3a11610079578063a694fc3a146102e7578063c8f33c91146102fa578063cc1a378f14610303578063d1af0c7d14610316578063ebe2b12b1461033d578063f2fde38b14610346575f80fd5b8063715018a6146102975780637b0a47ee1461029f57806380faa57d146102a8578063817b1cd2146102b0578063818ae1ce146102b85780638da5cb5b146102d7575f80fd5b8063386a952511610110578063386a9525146102245780633c6b16ab1461022d5780633d18b91214610240578063446a2ec8146102485780634e430f98146102505780636021726714610278575f80fd5b80628cc262146101565780630700037d1461017c5780630ab747f01461019b5780630ce71e32146101a4578063150b7a02146101e35780632e17de781461020f575b5f80fd5b610169610164366004610d00565b610359565b6040519081526020015b60405180910390f35b61016961018a366004610d00565b60076020525f908152604090205481565b61016960055481565b6101cb7f000000000000000000000000000000000000000000000000000000000000000081565b6040516001600160a01b039091168152602001610173565b6101f66101f1366004610d19565b6103dc565b6040516001600160e01b03199091168152602001610173565b61022261021d366004610dac565b61055e565b005b61016960035481565b61022261023b366004610dac565b6106de565b61022261087e565b610169610937565b6101cb61025e366004610dac565b60086020525f90815260409020546001600160a01b031681565b610169610286366004610d00565b60096020525f908152604090205481565b61022261099b565b61016960015481565b6101696109ac565b600a54610169565b6101696102c6366004610d00565b60066020525f908152604090205481565b5f546001600160a01b03166101cb565b6102226102f5366004610dac565b6109c2565b61016960045481565b610222610311366004610dac565b610a61565b6101cb7f000000000000000000000000000000000000000000000000000000000000000081565b61016960025481565b610222610354366004610d00565b610aef565b5f80610363610937565b6001600160a01b0384165f9081526007602090815260408083205460069092529091205491925090670de0b6b3a76400009061039f9084610dd7565b6001600160a01b0386165f908152600960205260409020546103c19190610df0565b6103cb9190610e07565b6103d59190610e26565b9392505050565b5f336001600160a01b037f000000000000000000000000000000000000000000000000000000000000000016146104505760405162461bcd60e51b815260206004820152601360248201527213919514dd185ad94e881ddc9bdb99c81b999d606a1b60448201526064015b60405180910390fd5b5f848152600860205260409020546001600160a01b0316156104b45760405162461bcd60e51b815260206004820152601860248201527f4e46545374616b653a20616c7265616479207374616b656400000000000000006044820152606401610447565b6104bd85610b29565b5f84815260086020908152604080832080546001600160a01b0319166001600160a01b038a169081179091558352600990915281208054916104fe83610e39565b9091555050600a8054905f61051283610e39565b909155505060405184906001600160a01b038716907f9e71bc8eea02a63969f509818f2dafb9254532904319f9dbda79b67bd34a5f3d905f90a350630a85bd0160e11b95945050505050565b610566610b84565b5f818152600860205260409020546001600160a01b031633146105c25760405162461bcd60e51b815260206004820152601460248201527327232a29ba30b5b29d103737ba1039ba30b5b2b960611b6044820152606401610447565b6105cb33610b29565b5f81815260086020908152604080832080546001600160a01b0319169055338352600990915281208054916105ff83610e51565b9091555050600a8054905f61061383610e51565b9091555050604051632142170760e11b8152306004820152336024820152604481018290527f00000000000000000000000000000000000000000000000000000000000000006001600160a01b0316906342842e0e906064015f604051808303815f87803b158015610683575f80fd5b505af1158015610695573d5f803e3d5ffd5b50506040518392503391507f0f5bb82176feb1b5e747e28471aa92156a04d9f3ab9f45f28e2d704232b93f75905f90a36106db60015f80516020610e7e83398151915255565b50565b6106e6610b9f565b6106ef5f610b29565b600254421061070d576003546107059082610e07565b60015561074d565b5f4260025461071c9190610dd7565b90505f6001548261072d9190610df0565b60035490915061073d8285610e26565b6107479190610e07565b60015550505b6040516370a0823160e01b81523060048201525f907f00000000000000000000000000000000000000000000000000000000000000006001600160a01b0316906370a0823190602401602060405180830381865afa1580156107b1573d5f803e3d5ffd5b505050506040513d601f19601f820116820180604052508101906107d59190610e66565b9050600354816107e59190610e07565b60015411156108285760405162461bcd60e51b815260206004820152600f60248201526e6e6f746966793a2062616c616e636560881b6044820152606401610447565b42600481905560035461083a91610e26565b6002556003546040805184815260208101929092527f6c07ee05dcf262f13abf9d87b846ee789d2f90fe991d495acd7d7fc109ee1f55910160405180910390a15050565b610886610b84565b61088f33610b29565b335f90815260076020526040902054801561091e57335f818152600760205260408120556108e8907f00000000000000000000000000000000000000000000000000000000000000006001600160a01b03169083610bcb565b60405181815233907fe2403640ba68fed3a2f88b7557551d1993f84b99bb10ff833f0cf8db0c5e04869060200160405180910390a25b5061093560015f80516020610e7e83398151915255565b565b5f600a545f03610948575060055490565b600a546001546004546109596109ac565b6109639190610dd7565b61096d9190610df0565b61097f90670de0b6b3a7640000610df0565b6109899190610e07565b6005546109969190610e26565b905090565b6109a3610b9f565b6109355f610c05565b5f60025442106109bd575060025490565b504290565b6109ca610b84565b604051632142170760e11b8152336004820152306024820152604481018290527f00000000000000000000000000000000000000000000000000000000000000006001600160a01b0316906342842e0e906064015f604051808303815f87803b158015610a35575f80fd5b505af1158015610a47573d5f803e3d5ffd5b505050506106db60015f80516020610e7e83398151915255565b610a69610b9f565b6002544211610aad5760405162461bcd60e51b815260206004820152601060248201526f6475726174696f6e3a2061637469766560801b6044820152606401610447565b5f8111610aea5760405162461bcd60e51b815260206004820152600b60248201526a06475726174696f6e3a20360ac1b6044820152606401610447565b600355565b610af7610b9f565b6001600160a01b038116610b2057604051631e4fbdf760e01b81525f6004820152602401610447565b6106db81610c05565b610b31610937565b600555610b3c6109ac565b6004556001600160a01b038116156106db57610b5781610359565b6001600160a01b0382165f9081526007602090815260408083209390935560055460069091529190205550565b610b8c610c54565b60025f80516020610e7e83398151915255565b5f546001600160a01b031633146109355760405163118cdaa760e01b8152336004820152602401610447565b610bd88383836001610c83565b610c0057604051635274afe760e01b81526001600160a01b0384166004820152602401610447565b505050565b5f80546001600160a01b038381166001600160a01b0319831681178455604051919092169283917f8be0079c531659141344cd1fd0a4f28419497f9722a3daafe3b4186f6b6457e09190a35050565b5f80516020610e7e8339815191525460020361093557604051633ee5aeb560e01b815260040160405180910390fd5b60405163a9059cbb60e01b5f8181526001600160a01b038616600452602485905291602083604481808b5af1925060015f51148316610cd9578383151615610ccd573d5f823e3d81fd5b5f873b113d1516831692505b60405250949350505050565b80356001600160a01b0381168114610cfb575f80fd5b919050565b5f60208284031215610d10575f80fd5b6103d582610ce5565b5f805f805f60808688031215610d2d575f80fd5b610d3686610ce5565b9450610d4460208701610ce5565b935060408601359250606086013567ffffffffffffffff80821115610d67575f80fd5b818801915088601f830112610d7a575f80fd5b813581811115610d88575f80fd5b896020828501011115610d99575f80fd5b9699959850939650602001949392505050565b5f60208284031215610dbc575f80fd5b5035919050565b634e487b7160e01b5f52601160045260245ffd5b81810381811115610dea57610dea610dc3565b92915050565b8082028115828204841417610dea57610dea610dc3565b5f82610e2157634e487b7160e01b5f52601260045260245ffd5b500490565b80820180821115610dea57610dea610dc3565b5f60018201610e4a57610e4a610dc3565b5060010190565b5f81610e5f57610e5f610dc3565b505f190190565b5f60208284031215610e76575f80fd5b505191905056fe9b779b17422d0df92223018b32b4d1fa46e071723d6817e2486d003becc55f00a2646970667358221220fef064fa8ac9451ed0a9926f75af455730a995701f02355206453e16c414f84164736f6c63430008180033","linkReferences":{}},"methodIdentifiers":{"earned(address)":"008cc262","getReward()":"3d18b912","lastTimeRewardApplicable()":"80faa57d","lastUpdateTime()":"c8f33c91","notifyRewardAmount(uint256)":"3c6b16ab","onERC721Received(address,address,uint256,bytes)":"150b7a02","owner()":"8da5cb5b","periodFinish()":"ebe2b12b","renounceOwnership()":"715018a6","rewardPerShare()":"446a2ec8","rewardPerShareStored()":"0ab747f0","rewardRate()":"7b0a47ee","rewards(address)":"0700037d","rewardsDuration()":"386a9525","rewardsToken()":"d1af0c7d","setRewardsDuration(uint256)":"cc1a378f","stake(uint256)":"a694fc3a","stakedBalance(address)":"60217267","stakedOwner(uint256)":"4e430f98","stakingNFT()":"0ce71e32","totalStaked()":"817b1cd2","transferOwnership(address)":"f2fde38b","unstake(uint256)":"2e17de78","userRewardPerSharePaid(address)":"818ae1ce"},"id":94}